:1000000029C038C037C036C0ADC034C033C032C0DC
:1000100031C030C0B1C02EC02DC02CC02BC02AC0F2
:1000200029C028C027C026C025C02C206261747456
:100030006572793D00206A3D002C20696E69746903
:10004000616C204F534343414C3D004F5343434168
:100050004C3D000011241FBECFE5D1E0DEBFCDBF77
:1000600020E0A0E6B0E001C01D92A236B207E1F7A1
:1000700057D149C2C5CF5D9BFECF8CB90895CF93B0
:10008000DF93EC0160E177E286D1662329F080E31B
:10009000860FF1DF41E001C040E0CE0168EE73E081
:1000A0007AD1CB016AE070E076D1009711F4442355
:1000B00019F0805DE0DF41E0CE0164E670E06BD1D5
:1000C000CB016AE070E067D1009711F4442319F086
:1000D000805DD1DF41E02AE030E0CE01B9015BD1A3
:1000E000CB01B90158D1009711F4442311F0805D80
:1000F000C2DFCE016AE070E04ED1805DDF91CF912A
:10010000BACFCF93C82F282F30E084E035952795BC
:100110008A95E1F72A3010F480E301C087E3820F6B
:10012000AADFCF70CA3010F480E301C087E38C0FE0
:10013000CF91A1CFCF93DF93EC01FE01849188236F
:1001400071F0803831F0813839F48FEF9FEF97DF0D
:1001500004C08FEFD6DF01C08EDF2196EECFDF9196
:10016000CF9108951F920F920FB60F9211240F9006
:100170000FBE0F901F9018951F920F920FB60F92FF
:1001800011248F939F938CB59DB5909361008093BC
:1001900060009F918F910F900FBE0F901F90189548
:1001A000CF92DF92EF92FF926B017C011FBC80E146
:1001B000C816D104E104F10448F489E08EBDC701FA
:1001C000B60120E039E04DE350E015C081E8C816E3
:1001D0008EE3D806E104F10430F090E8C92E9EE3E6
:1001E000D92EE12CF12C8DE08EBDC701B60122E4A1
:1001F0003FE040E050E007D1B901CA0128EE33E00A
:1002000040E050E0DCD03BBD2ABD1DBC1CBC80E4FE
:1002100088BF89BF85B78F7A85BF85B7806285BF64
:1002200078948895F89485B78F7D85BF19BEC701EE
:10023000B601FF90EF90DF90CF90089582E488B9E7
:1002400061E070E080E090E0ABDF1FBC81E08EBD3C
:100250008FE097E290936100809360008AE588B90F
:10026000B898C09A1DBC1CBC789487EE93E00197A7
:10027000F1F700C00000F89482E988B9C098B89AF4
:10028000C0986AE070E080E090E08ADFC09A6AE09F
:1002900070E080E090E084DFC0986AE070E080E089
:1002A00090E07EDFC09A6EE170E080E090E078DF61
:1002B000C09808950F931F93CF93DF931F92CDB7EC
:1002C000DEB7182F092F8F7781BF6983B7DF8BE4E3
:1002D00090E030DF81B715DF89E390E02BDF6981A3
:1002E000862F0FDF85E390E025DF802F0ADF812F47
:1002F00008DF8AE290E01EDF80916000909161004B
:10030000BEDE8AE0B8DE10FF02C0949A01C0949865
:1003100084E690E00F90DF91CF911F910F910895A7
:1003200087E08ABB8DE187BB8CE581BB88EF8BBB07
:100330008AEE88BB83EA82BB80E886BD16BC9498AF
:10034000C49820E0263028F5233081F028F42130AD
:1003500049F0223049F004C0243051F0253051F0EA
:10036000969A09C0969807C0949A05C0949803C0BD
:10037000C49A01C0C49880E090E0EFE1FEE43197B8
:10038000F1F700C00000019682339105B1F72F5FAD
:10039000D9CF20E0E5CFAA1BBB1B51E107C0AA1FA4
:1003A000BB1FA617B70710F0A61BB70B881F991F16
:1003B0005A95A9F780959095BC01CD010895A1E2C9
:1003C0001A2EAA1BBB1BFD010DC0AA1FBB1FEE1FCF
:1003D000FF1FA217B307E407F50720F0A21BB30B1A
:1003E000E40BF50B661F771F881F991F1A9469F796
:1003F00060957095809590959B01AC01BD01CF01F2
:10040000089568940013E894A0E0B0E0E9E0F2E019
:100410001DC0EFEFE7F959016A015E23550FEE08A1
:10042000FE2C87019B01AC019E23990F660B762F52
:10043000CB013BD0CDB7DEB7EAE024C02F923F928C
:100440004F925F926F927F928F929F92AF92BF92E4
:10045000CF92DF92EF92FF920F931F93CF93DF9390
:10046000CDB7DEB7CA1BDB0B0FB6F894DEBF0FBEED
:10047000CDBF09942A88398848885F846E847D843A
:100480008C849B84AA84B984C884DF80EE80FD803C
:100490000C811B81AA81B981CE0FD11D0FB6F894B2
:1004A000DEBF0FBECDBFED010895DF93CF939F92C6
:1004B000A0E49A2E0024D001E001F00116950795E2
:1004C000F794E794D794C794B794A79448F4106826
:1004D000A20FB31FC41FD51FE61FF71F081E191E4A
:1004E000220F331F441F551F661F771F881F991F38
:1004F0009A9421F79D01AE01BF01C00111249F9084
:0A050000CF91DF910895F894FFCF2A
:00000001FF
