:1000000057C066C065C064C00CC162C061C060C03A
:100010005FC05EC010C15CC05BC05AC059C058C050
:1000200057C056C055C054C053C02E2E2E0A0A00C9
:100030000A0A656570726F6D5B305D202863616CC4
:100040006962726174696F6E2062797465293A2001
:100050003078002E2E2E0A0020002C20656570724C
:100060006F6D3D002C20696E697469616C204F537F
:100070004343414C3D002C20626174746572793DAC
:10008000002C204F534343414C3D002C20736F669E
:10009000745F636F756E743D002C20736F66745FC0
:1000A0006D6F64653D000A0A465F4350553D000090
:1000B00011241FBECFE5D1E0DEBFCDBF20E0A0E61A
:1000C000B0E001C01D92A436B207E1F750D1BEC125
:1000D00097CF90916300992399F090E09F6F880FDC
:1000E000991F2CE046E680FF02C0C69A01C0C69860
:1000F00095958795342F3A95F1F72150A1F70895FA
:100100005D9BFECF8CB908954F925F926F927F9264
:100110008F929F92AF92BF92CF92DF92EF92FF9217
:100120000F931F93CF93DF93CDB7DEB72A970FB608
:10013000F894DEBF0FBECDBF6B017C018E010F5F57
:100140001F4F812C9924939458015AE0452E512C2D
:10015000612C712C8394C701B601A30192014CD18B
:10016000F80161938F016111982CC701B601A301B9
:10017000920142D169017A01FAE08F12EBCF9A9491
:10018000F501E90DF11D8081805DA3DF9110F7CFAE
:100190002A960FB6F894DEBF0FBECDBFDF91CF9188
:1001A0001F910F91FF90EF90DF90CF90BF90AF9095
:1001B0009F908F907F906F905F904F900895CF9316
:1001C000C82F282F30E064E0359527956A95E1F730
:1001D0002A3010F480E301C087E3820F7ADFCF700A
:1001E000CA3010F480E301C087E38C0FCF9171CF48
:1001F000CF93DF93EC01FE018491882379F080385E
:1002000039F0813841F46FEF7FEFCB017DDF04C01F
:100210008FEFD5DF01C05DDF2196EDCFDF91CF916C
:1002200008951F920F920FB60F9211240F900FBED8
:100230000F901F9018951F920F920FB60F921124D6
:100240008F939F938CB59DB59093610080936000D0
:100250009F918F910F900FBE0F901F901895CF9385
:10026000DF9344D086EA90E0C3DF60E079E08DE37D
:1002700090E04ADF89E990E0BBDF6091630070E0C5
:1002800080E090E041DF8BE890E0B2DF66E670E06E
:1002900080E090E039DF81E890E0AADF81B78FDF6E
:1002A00086E790E0A5DF609160007091610080E0DA
:1002B00090E02ADF84E690E09BDF809162007FDFA0
:1002C0008AE590E095DF80E090E0EC012196B6D0E1
:1002D00076DF88E590E08CDFC530D10511F0CE01E6
:1002E000F4CF83E590E0DF91CF9182CF82E488B9AB
:1002F00087EE93E00197F1F700C000001FBC81E09A
:100300008EBD8FE097E290936100809360008AE554
:1003100088B9B898C09A1DBC1CBC789487EE93E04D
:100320000197F1F700C00000F89482E988B9C098FD
:10033000B89AC0988FE097E20197F1F700C00000EB
:10034000C09A8FE097E20197F1F700C00000C098D3
:100350008FE097E20197F1F700C00000C09A8FE2AA
:1003600095E70197F1F700C00000C098089581B7A4
:100370008093620047E04ABB3DE537BB2CE521BBDB
:1003800098EF9BBB82EE88BB83EA82BB50E856BDE8
:1003900016BC12B853E059B958E05AB95EE053B9E7
:1003A0004ABB37BB21BB9BBB9AEE98BB82BB2FEFEE
:1003B00080E792E0215080409040E1F700C00000CB
:1003C00080E390E015DF80E090E038D0F8DE8AE24C
:1003D00090E00EDF81E080936300D0E1D0BBC0E00D
:1003E000C1BF8FE097E20197F1F700C0000037DF4F
:1003F000CF5FC038A9F7F2CFA1E21A2EAA1BBB1B10
:10040000FD010DC0AA1FBB1FEE1FFF1FA217B307E0
:10041000E407F50720F0A21BB30BE40BF50B661FF6
:10042000771F881F991F1A9469F7609570958095BA
:1004300090959B01AC01BD01CF010895E199FECFDC
:100440001FBA8EBBE09A99278DB30895F894FFCF19
:00000001FF
