:1000000057C071C070C06FC019C16DC06CC06BC0EB
:100010006AC069C01DC167C066C065C064C063C0F6
:1000200062C061C060C05FC05EC02E2E2E0A0A0092
:100030000A0A656570726F6D5B305D202863616CC4
:100040006962726174696F6E2062797465293A2001
:100050003078002E2E2E0A0020002C20656570724C
:100060006F6D3D002C20696E697469616C204F537F
:100070004343414C3D002C20626174746572793DAC
:10008000002C204F534343414C3D002C20736F669E
:10009000745F636F756E743D002C20736F66745FC0
:1000A0006D6F64653D000A0A465F4350553D000090
:1000B00011241FBECFE5D1E0DEBFCDBF10E0A0E62A
:1000C000B0E0E8E6F4E002C005900D92A236B10778
:1000D000D9F720E0A2E6B0E001C01D92A536B20734
:1000E000E1F752D1BFC18CCF909160009923A9F064
:1000F00090E09F6F880F991F2CE04FE080FF03C0B6
:10010000C69A919A02C0C698919895958795342F72
:100110003A95F1F7215091F708955D9BFECF8CB988
:1001200008954F925F926F927F928F929F92AF92BB
:10013000BF92CF92DF92EF92FF920F931F93CF93D4
:10014000DF93CDB7DEB72A970FB6F894DEBF0FBEA8
:10015000CDBF6B017C018E010F5F1F4F812C992455
:10016000939458015AE0452E512C612C712C8394A4
:10017000C701B601A30192014BD1F80161938F0130
:100180006111982CC701B601A301920141D1690107
:100190007A01FAE08F12EBCF9A94F501E90DF11D87
:1001A0008081805DA1DF9110F7CF2A960FB6F89479
:1001B000DEBF0FBECDBFDF91CF911F910F91FF909A
:1001C000EF90DF90CF90BF90AF909F908F907F90F7
:1001D0006F905F904F900895CF93C82F282F30E0F5
:1001E00064E0359527956A95E1F72A3010F480E3AD
:1001F00001C087E3820F78DFCF70CA3010F480E34C
:1002000001C087E38C0FCF916FCFCF93DF93EC01C9
:10021000FE018491882379F0803839F0813841F4E7
:100220006FEF7FEFCB017DDF04C08FEFD5DF01C023
:100230005BDF2196EDCFDF91CF9108951F920F9252
:100240000FB60F9211240F900FBE0F901F901895AC
:100250001F920F920FB60F9211248F939F938CB51C
:100260009DB590936300809362009F918F910F9052
:100270000FBE0F901F901895CF93DF9344D086EA5E
:1002800090E0C3DF60E079E08DE390E04ADF89E948
:1002900090E0BBDF6091600070E080E090E041DFC3
:1002A0008BE890E0B2DF6FE070E080E090E039DF53
:1002B00081E890E0AADF81B78FDF86E790E0A5DFD5
:1002C000609162007091630080E090E02ADF84E634
:1002D00090E09BDF809164007FDF8AE590E095DF0E
:1002E00080E090E0EC012196B5D076DF88E590E0E3
:1002F0008CDFC530D10511F0CE01F4CF83E590E05D
:10030000DF91CF9182CF82E488B987EE93E00197A5
:10031000F1F700C000001FBC81E08EBD8FE097E2C6
:1003200090936300809362008AE588B9B898C09A78
:100330001DBC1CBC789487EE93E00197F1F700C0D8
:100340000000F89482E988B9C098B89AC0988FE004
:1003500097E20197F1F700C00000C09A8FE097E2A2
:100360000197F1F700C00000C0988FE097E2019775
:10037000F1F700C00000C09A8FE295E70197F1F70E
:1003800000C00000C098089581B78093640083E0A6
:100390008ABB4DE547BB3CE531BB2CEF2BBB92EE56
:1003A00098BB93EE92BB50E856BD16BC12B889B903
:1003B00058E05AB95EE053B98ABB47BB31BB2BBB8F
:1003C0008AEE88BB92BB2FEF80E792E021508040FD
:1003D0009040E1F700C0000080E390E016DF80E08D
:1003E00090E038D0F9DE8AE290E00FDF81E0809380
:1003F0006000D0E1D0BBC0E0C1BF8FE097E20197C1
:10040000F1F700C0000038DFCF5FC038A9F7F2CFA6
:10041000A1E21A2EAA1BBB1BFD010DC0AA1FBB1F08
:10042000EE1FFF1FA217B307E407F50720F0A21B7A
:10043000B30BE40BF50B661F771F881F991F1A94E7
:1004400069F760957095809590959B01AC01BD0111
:10045000CF010895E199FECF1FBA8EBBE09A99278C
:080460008DB30895F894FFCF5D
:02046800010091
:00000001FF
