:1000000014C02EC02DC02CC01AC22AC029C0D8C10D
:1000100027C026C01EC224C023C022C021C020C0C9
:100020001FC01EC01DC01CC01BC011241FBECFE5B9
:10003000D1E0DEBFCDBF10E0A0E6B0E0EAE4FCE036
:1000400002C005900D92AC39B107D9F720E0ACE9B8
:10005000B0E001C01D92A73DB207E1F7B4D4F3C5EB
:10006000CFCF9091D400982728E047E0392F330F65
:1000700097FF03C0932F942701C0932F2150B1F70E
:100080009093D4005D9BFECF8CB90895CF92DF9200
:10009000EF92FF926B017C011FBC80E1C816D10476
:1000A000E104F10448F489E08EBDC701B60120E007
:1000B00030E448E350E015C081E8C8168EE3D80666
:1000C000E104F10430F080E8C82E8EE3D82EE12C54
:1000D000F12C8DE08EBDC701B60120E13EE040E08D
:1000E00050E017D5B901CA0128EE33E040E050E0F6
:1000F000ECD43BBD2ABD1DBC1CBC80E488BF89BFBD
:1001000085B78F7A85BF85B7806285BF78948895DB
:10011000F89485B78F7D85BF19BEC701B601FF90E2
:10012000EF90DF90CF90089564E670E080E090E07B
:10013000ADDF1AB8899A9198C39A60E177E280E0BE
:1001400090E0A4CFE82FF0E0E456FF4F63816F709A
:1001500070E0762F66278281682B80E090E0209106
:10016000A80030E040E050E0D4D4B901CA0128EE44
:1001700033E040E050E0A9D48091A900992787FDA1
:100180009095820F931FE091B70021E02E0F2093EE
:10019000B700F0E0E854FF4F969587958083089567
:1001A000FF920F931F93CF93DF939398162FFB012A
:1001B0002E2F211B241798F5DC010D91CD0128E08D
:1001C00030E0A0E850E0BA2FB02311F0C29A01C08D
:1001D000C298929ABBE7BA95F1F7859B03C0CFEF1F
:1001E000D0E002C0C0E0D0E0B0E0CA23DB235C2B4B
:1001F0009298C6EFCA95F1F7B595A79521503109A8
:100200002115310501F76115710509F05083ACEC3A
:10021000B1E01197F1F700C000003196C9CFC29844
:10022000939A61E070E080E090E0DF91CF911F91C0
:100230000F91FF902BCFCF93DF9300D0CDB7DEB7D8
:1002400089836A8342E060E070E0CE010196A8DF16
:100250000F900F90DF91CF910895CF93DF9300D04F
:100260001F92CDB7DEB78CE689838DE48A831B822B
:1002700043E0BE016F5F7F4FCB0192DF8A810F9019
:100280000F900F90DF91CF910895CF93DF93C39894
:1002900064E670E080E090E0F9DE88E08AB968E525
:1002A00072E080E090E0F2DE8091C700811127C00B
:1002B00088E98AB9C8E6D0E08991D3DE20E0C0376A
:1002C000D207D1F71092CB00C498949A789486E91B
:1002D00090E13FEF4FE121E0315040402040E1F715
:1002E00000C000002091C700222321F0F89488E08C
:1002F0008AB905C096BB90BB815059F7F7CFDF9103
:10030000CF910895682F2091B5003091B60022302A
:10031000310560F08091D5009091D6009C012F5F4F
:100320003F4F3093D6002093D5007BC40895CF93E0
:10033000C82F85E596DE1092D40080E092DE8C2FE7
:1003400090DE87E08EDE81E08CDE8091D400CF915C
:1003500088CECF93C82F99DF8BE0E9DF1092D400CD
:1003600082ED7FDE80E27DDE8C2F7BDEC091CF00D0
:100370008091D00076DE8C2F74DE8091D30071DE08
:100380008FEF6FDE8091CA006CDE8091C90069DE5C
:100390008091C80066DE80E064DE80E062DE8FEF80
:1003A00060DE8FEF5EDE8FEF5CDE8FEF5ADE8FEF69
:1003B00058DE80E056DE8091D40053DECF91B4CE7B
:1003C0001F920F920FB60F9211248F939F93EF936A
:1003D000FF938CB19091C700911128C0E091CB00A0
:1003E000E830D1F01CF4E7FF0BC01BC0E930B9F0D6
:1003F000EA30B9F48093C80081E08093C70011C04F
:10040000FF27E7FDF095E358FF4F9081891749F0EA
:100410008FEF8093CB0005C08093CA0002C0809309
:10042000C9008091CB008F5F8093CB00FF91EF914B
:100430009F918F910F900FBE0F901F9018951F9254
:100440000F920FB60F9211240F900FBE0F901F90B6
:1004500018951F920F920FB60F9211248F939F93AE
:100460008CB59DB59093D0008093CF009F918F91D4
:100470000F900FBE0F901F901895CF93DF93A8EBAE
:10048000B0E080E021E0280F922FE92FF0E0E8545F
:10049000FF4FC82FD0E0C854DF4F40813881431749
:1004A00008F4892F9F5F9F3080F39C91E82FF0E044
:1004B000E854FF4F80818D9390832E3011F0822F6E
:1004C000E1CFDF91CF91089580FF08C0C49A68E51D
:1004D00072E080E090E0DADDC49807C0949A68E5A5
:1004E00072E080E090E0D2DD949868EC70E080E00B
:1004F00090E0CCCD82E488B989E993E00197F1F7E7
:1005000000C01FBC81E08EBD8FE097E29093D000C9
:100510008093CF008AE588B9B898C09A1DBC1CBCEE
:10052000789489E993E00197F1F700C0F89482E9A3
:1005300088B9C098B89AC0980895CF92DF92EF9288
:10054000FF920F931F93CF93DF9300D000D0CDB7CE
:10055000DEB7F090D3000F2D10E08F2D8695869595
:10056000B3DFC80195958795AFDF8F2DADDFC2DF73
:100570008091B5009091B600892B31F58091CF0024
:100580009091D00023E0969587952A95E1F7909178
:10059000AE00891770F49091AF00891760F49091C4
:1005A000B000891750F49091B100891740F485E0AC
:1005B00007C081E005C082E003C083E001C084E0A1
:1005C00048EC68EC70E0C9D14DE060E070E080E795
:1005D00090E0E6DD6AE070E080E090E057DD1092A8
:1005E000B70080E290E09093D6008093D50013E0AE
:1005F000F12E0CE5E02E8FE8D82E93E0C92EE9828B
:10060000EA8242E0BE016F5F7F4FCB01C9DD8A8184
:10061000882339F0DB8241E060E070E0CE01039690
:10062000BFDD1BDEF092670048E060E070E080E62E
:1006300090E0B6DD6EE170E080E090E027DD0DDE59
:10064000807C803C09F031C1E982EA8242E0BE014F
:100650006F5F7F4FCB01A4DD1A811F771B30D8F568
:1006600041E0410F6CE970E085E890E099DD1930D8
:1006700091F580919D0081112EC023E0F21209C0F6
:100680008091A1008093D1008091A0008093D2003E
:1006900041C08091D10036DE8091D20033DE8F2DB3
:1006A00031DE06EA10E0F80182918F012BDEF0E0E6
:1006B0000E391F07C1F78F2D6C2DE7D1913031F026
:1006C000923031F486E03EDD80E003C082E001C07C
:1006D00084E038DD1FC044E668EC70E083E03DD183
:1006E0008F2D63E0D2D1913051F4E091B70081E0D9
:1006F0008E0F8093B700F0E0E854FF4F1082E09136
:10070000B70081E08E0F8093B700F0E0E854FF4F10
:100710001082CBC0A2DDF3942FE0F21270CF60E123
:1007200080E090E088DDB1DD00E210E082E1FFDDF5
:100730001092D40082ED95DC81E293DC78012BE00D
:10074000E20EF11CC80165D28CDC0F5F1F4F0E1545
:100750001F05C1F78FEF85DC8091CA0082DC809194
:10076000C9007FDC8091C8007CDC80E07ADC80E01E
:1007700078DC8FEF76DC8FEF74DC8FEF72DC8FEF3D
:1007800070DC8FEF6EDC80E06CDC8091D40069DC83
:1007900064E670E080E090E079DC0939110531F61B
:1007A000C3DC6BDEEBEBF0E080E090E02191820FA8
:1007B000911D20E0E43CF207C9F769E070E071D1D7
:1007C0008B018091B5009EDD802F9CDD8091CD0056
:1007D00099DD8091AB0096DD8091AA0093DD809138
:1007E000CD009091CE000097E1F41093CE000093DD
:1007F000CD0087E08093D3008091AC00800F909172
:10080000AD00E02FE91B2091AB00E21710F4E0935C
:10081000AB009091AA00981710F48093AA0090E082
:1008200030C008171907B0F08091AC009091AA0071
:100830009E3728F0800F891710F48093AA0086E075
:100840008093D3008091AA0090E08017910738F739
:10085000949A16C08091AD009091AB00983230F41C
:10086000F02FF81B9F1710F4F093AB0084E08093F7
:10087000D3008091AB0090E00817190780F6C49A66
:1008800091E0802F9C8365DD4FDC9C81992351F0A2
:1008900048EC64EF71E08CEA60D060ED77E080E0D6
:1008A00090E01EC06091B40011C060E180E090E073
:1008B000C2DC83E08093D30080E04BDD35DC44E68E
:1008C00064E670E083E049D06091B30070E080E0BE
:1008D00090E020E43FE140E050E019D1B901CA01C5
:1008E0000F900F900F900F90DF91CF911F910F916C
:1008F000FF90EF90DF90CF900895CF93DF9300D0DB
:100900001F92CDB7DEB783E88B8341E060E070E0F3
:10091000CE01039645DC80E88A8341E060E070E028
:10092000CE0102963DDC8FE8898341E060E070E013
:10093000CE01019635DC60E180E090E07CDC60E097
:1009400081E090E078DC60E088E190E074DC0F907A
:100950000F900F90DF91CF9108958F929F92AF9259
:10096000BF92CF92DF92EF92FF920F931F93CF939C
:10097000DF939091CC0095FF19C000E010E0C82FE4
:10098000D0E06B01E12CF12C842E912CA12CB12C08
:100990000C171D075CF49698C701B60177DB969A91
:1009A000C501B40173DB0F5F1F4FF2CFDF91CF9111
:1009B0001F910F91FF90EF90DF90CF90BF90AF907D
:1009C0009F908F900895C7EAD0E0E12CF12CC701E9
:1009D00020D189938FEFE81AF80A8EE0E816F10427
:1009E000B1F7C3E0CABB8DE987BB0EE501BB1BBAFB
:1009F00088EA88BBD0E4D2BB10E816BD16BC1FBC89
:100A00001EBC12B8C9B990DB88E08AB98EE083B900
:100A100086B38093CC0018BACABB8DEB87BB01BBF1
:100A20001BBA18BBD2BB939A9298C29882E888B935
:100A3000C1B962E370E080E090E028DB5EDFC0E9EE
:100A4000D0E08991882311F00CDBFBCF82DC10927F
:100A5000B6001092B50071DD6B017C011C141D0401
:100A60001E041F0444F4C701B60110DBC61AD70ADE
:100A7000E80AF90AF3CF8091B5009091B60001968B
:100A80009093B6008093B500E6CF991B79E004C03F
:100A9000991F961708F0961B881F7A95C9F78095BD
:100AA0000895AA1BBB1B51E107C0AA1FBB1FA617B5
:100AB000B70710F0A61BB70B881F991F5A95A9F707
:100AC00080959095BC01CD010895A1E21A2EAA1B34
:100AD000BB1BFD010DC0AA1FBB1FEE1FFF1FA217EE
:100AE000B307E407F50720F0A21BB30BE40BF50BEB
:100AF000661F771F881F991F1A9469F76095709574
:100B0000809590959B01AC01BD01CF01089568943B
:100B10000013E894A0E0B0E0EFE8F5E01DC0EFEFCF
:100B2000E7F959016A015E23550FEE08FE2C870193
:100B30009B01AC019E23990F660B762FCB013BD016
:100B4000CDB7DEB7EAE024C02F923F924F925F927A
:100B50006F927F928F929F92AF92BF92CF92DF92CD
:100B6000EF92FF920F931F93CF93DF93CDB7DEB732
:100B7000CA1BDB0B0FB6F894DEBF0FBECDBF0994C6
:100B80002A88398848885F846E847D848C849B841D
:100B9000AA84B984C884DF80EE80FD800C811B812B
:100BA000AA81B981CE0FD11D0FB6F894DEBF0FBE5A
:100BB000CDBFED010895DF93CF939F92A0E49A2ECD
:100BC0000024D001E001F00116950795F794E79411
:100BD000D794C794B794A79448F41068A20FB31F92
:100BE000C41FD51FE61FF71F081E191E220F331F33
:100BF000441F551F661F771F881F991F9A9421F75E
:100C00009D01AE01BF01C00111249F90CF91DF91E2
:100C10000895E199FECF1FBA8EBBE09A99278DB354
:100C20000895262FE199FECF1FBA8EBBE09A81501E
:100C30000DB2021639F01CBA2DBB0FB6F894E29A29
:0A0C4000E19A0FBE0895F894FFCF6B
:100C4A008F913D00300220005500010005700838E0
:100C5A002030020000C1BB00301F014003550005CF
:100C6A000102DB00FF7F000000000000000000001E
:0C0C7A000A0A454E4F2D5245530A0A004D
:00000001FF
