:1000000014C02EC02DC02CC0F4C12AC029C0B2C15A
:1000100027C026C0F8C124C023C022C021C020C0F0
:100020001FC01EC01DC01CC01BC011241FBECFE5B9
:10003000D1E0DEBFCDBF10E0A0E6B0E0E2ECFAE038
:1000400002C005900D92A039B107D9F720E0A0E9D0
:10005000B0E001C01D92A63CB207E1F710D42FC555
:10006000CFCF9091C500982728E047E0392F330F74
:1000700097FF03C0932F942701C0932F2150B1F70E
:100080009093C5005D9BFECF8CB90895CF92DF920F
:10009000EF92FF926B017C011FBC80E1C816D10476
:1000A000E104F10448F489E08EBDC701B60120E007
:1000B00030E448E350E015C081E8C8168EE3D80666
:1000C000E104F10430F080E8C82E8EE3D82EE12C54
:1000D000F12C8DE08EBDC701B60120E13EE040E08D
:1000E00050E065D4B901CA0128EE33E040E050E0A9
:1000F0003AD43BBD2ABD1DBC1CBC80E488BF89BF6F
:1001000085B78F7A85BF85B7806285BF78948895DB
:10011000F89485B78F7D85BF19BEC701B601FF90E2
:10012000EF90DF90CF90089564E670E080E090E07B
:10013000ADDF1AB8899A9198C39A60E177E280E0BE
:1001400090E0A4CFE82FF0E0EF55FF4F63816F7090
:1001500070E0762F66278281682B80E090E0209106
:10016000AD0030E040E050E022D4B901CA0128EEF1
:1001700033E040E050E0F7D38091AE00992787FD4F
:100180009095820F931F969587950895FF920F93F0
:100190001F93CF93DF939398162FFB012E2F211BD4
:1001A000241798F5DC010D91CD0128E030E0A0E89E
:1001B00050E0BA2FB02311F0C29A01C0C298929AAF
:1001C000BBE7BA95F1F7859B03C0CFEFD0E002C043
:1001D000C0E0D0E0B0E0CA23DB235C2B9298C6EFEE
:1001E000CA95F1F7B595A79521503109211531052B
:1001F00001F76115710509F05083ACECB1E011977E
:10020000F1F700C000003196C9CFC298939A61E01F
:1002100070E080E090E0DF91CF911F910F91FF900F
:1002200035CFCF93DF9300D0CDB7DEB789836A8314
:1002300042E060E070E0CE010196A8DF0F900F90E1
:10024000DF91CF910895CF93DF9300D01F92CDB768
:10025000DEB78CE689838DE48A831B8243E0BE018E
:100260006F5F7F4FCB0192DF8A810F900F900F90CD
:10027000DF91CF9108951F93CF93DF93182FC398E9
:1002800064E670E080E090E001DF88E08AB968E52C
:1002900072E080E090E0FADE8091B800811127C022
:1002A00088E98AB9C8E6D0E08991DBDE30E0C03762
:1002B000D307D1F71092BC00C498949A789496E929
:1002C00020E14FEF8FE131E0415080403040E1F7D5
:1002D00000C000008091B800882321F0F89488E0E5
:1002E0008AB905C026BB20BB915059F7F7CF85E5E9
:1002F000B8DE1092C50080E0B4DE8BE0B2DE87E0AD
:10030000B0DE81E0AEDE8091C500ABDE1092C500AC
:1003100082EDA7DE80E2A5DE812FA3DEC091C000C2
:100320008091C1009EDE8C2F9CDE8091C40099DEFE
:100330008FEF97DE8091BB0094DE8091BA0091DE52
:100340008091B9008EDE80E08CDE80E08ADE8FEF67
:1003500088DE8FEF86DE8FEF84DE8FEF82DE8FEF19
:1003600080DE80E07EDE8091C5007BDEDF91CF9174
:100370001F91DACE1F920F920FB60F9211248F9316
:100380009F93EF93FF938CB19091B800911128C087
:10039000E091BC00E830D1F01CF4E7FF0BC01BC0BB
:1003A000E930B9F0EA30B9F48093B90081E0809384
:1003B000B80011C0FF27E7FDF095E857FF4F908187
:1003C000891749F08FEF8093BC0005C08093BB0074
:1003D00002C08093BA008091BC008F5F8093BC0004
:1003E000FF91EF919F918F910F900FBE0F901F90F3
:1003F00018951F920F920FB60F9211240F900FBEF7
:100400000F901F9018951F920F920FB60F92112404
:100410008F939F938CB59DB59093C1008093C0003E
:100420009F918F910F900FBE0F901F901895CF93B3
:10043000DF93A1E9B0E090E021E0290F822FE82FBF
:10044000F0E0EF56FF4FC92FD0E0CF56DF4F40818D
:10045000388143170CF4982F8F5F803180F38C9193
:10046000E92FF0E0EF56FF4F90819D938083922F0C
:100470002F3011F7DF91CF9108951F93CF93DF9322
:1004800000D0CDB7DEB7182F9CE599839A8342E060
:10049000BE016F5F7F4FCB0179DE8A81882341F0F7
:1004A0008FE8898341E060E070E0CE0101966EDE66
:1004B000CADE1093670048E060E070E080E690E0FC
:1004C00065DE6EE170E080E090E0E0DDBCDE982F5C
:1004D000907C81E0903C09F480E00F900F90DF91D8
:1004E000CF911F91089580FF08C0C49A68E572E01B
:1004F00080E090E0CBDDC49807C0949A68E572E094
:1005000080E090E0C3DD949868EC70E080E090E0DB
:10051000BDCD82E488B989E993E00197F1F700C085
:100520001FBC81E08EBD8FE097E29093C100809365
:10053000C0008AE588B9B898C09A1DBC1CBC7894E4
:1005400089E993E00197F1F700C0F89482E988B94E
:10055000C098B89AC0980895DF92EF92FF920F93D7
:100560001F93CF93DF9300D0CDB7DEB78C01D0902F
:10057000C400ED2CF12C8D2D86958695B4DFC70136
:1005800095958795B0DF8D2DAEDFC3DF012B31F55B
:100590008091C0009091C10023E0969587952A959F
:1005A000E1F79091B300891770F49091B400891726
:1005B00060F49091B500891750F49091B6008917B6
:1005C00040F485E007C081E005C082E003C083E01D
:1005D00001C084E048EC68EC70E01FD14DE060E0C1
:1005E00070E080E790E0D2DD6AE070E080E090E0CB
:1005F0004DDD1092900013E00CE5E02E812F3DDFE1
:10060000F82E811176C0E982EA8242E0BE016F5F76
:100610007F4FCB01BBDD0A810F770B3008F046C05E
:1006200041E0400F61EA70E08DE790E0AFDD093016
:10063000E9F58091A200811139C0133049F480910D
:10064000A7008093C2008091A6008093C3004CC095
:10065000812F63E068D1009190009130A9F0923031
:10066000C9F4DD24D394D00ED092900086E06ADDE8
:10067000A02FB0E0AF56BF4F8C930E5F0093900059
:1006800080E060DDED2D0DC081E0800F8093900053
:1006900082E005C081E0800F8093900084E052DD0D
:1006A000E02FF0E0EF56FF4F80831EC044E668EC79
:1006B00070E083E0B2D0812F63E035D1913051F406
:1006C000E091900081E08E0F80939000F0E0EF5673
:1006D000FF4F1082E091900081E08E0F8093900098
:1006E000F0E0EF56FF4F1082AEDD1F5F103109F0D2
:1006F00085CF60E180E090E094DDFF2079F083E039
:100700008093C40080E0B7DD44E664E670E083E0F7
:1007100084D060E67AEE80E090E045C088DEE4E9CF
:10072000F0E080E090E02191820F911D27FD9A95E5
:1007300020E0EE39F207B9F76AE070E000D18B01F2
:100740008091BE009091BF00009741F47093BF006C
:100750006093BE0087E08093C4001FC068177907CC
:1007600060F026E02093C4006937710520F44996B3
:100770008617970790F4949A0BC024E02093C40046
:100780006832710520F049976817790730F4C49AE8
:1007900048EC64EF71E08AE040D0802F6CDD60ECC3
:1007A00077E289E090E00F900F90DF91CF911F9159
:1007B0000F91FF90EF90DF900895CF93DF9300D0DB
:1007C0001F92CDB7DEB783E88B8341E060E070E035
:1007D000CE010396DBDC80E88A8341E060E070E0D4
:1007E000CE010296D3DC8FE8898341E060E070E0BF
:1007F000CE010196CBDC60E180E090E012DD60E0AC
:1008000081E090E00EDD60E088E190E00ADD0F908D
:100810000F900F90DF91CF9108958F929F92AF929A
:10082000BF92CF92DF92EF92FF920F931F93CF93DD
:10083000DF9300E010E0C82FD0E06B01E12CF12C39
:10084000842E912CA12CB12C0C171D075CF4969AC8
:10085000C701B6011BDC9698C501B40117DC0F5F18
:100860001F4FF2CFDF91CF911F910F91FF90EF902B
:10087000DF90CF90BF90AF909F908F900895CCEA7B
:10088000D0E0E12CF12CC70112D189938FEFE81A47
:10089000F80A8CE0E816F104B1F717E01ABB8DE90D
:1008A00087BBDEE5D1BB1BBA88E288BB12BA80E801
:1008B00086BD16BC1FBC1EBC12B8C3E0C9B934DC6F
:1008C00088E08AB98EE083B986B38093BD0018BAF8
:1008D0001ABB8DEB87BBD1BB1BBA18BA12BA939A5D
:1008E0009298C29882E888B9C1B967DF8091AC005C
:1008F0008F3F09F48BE381BF80E0BDDCC0E0D0E036
:10090000CE012ADE6B017C011C141D041E041F0491
:1009100044F4C701B601BADBC61AD70AE80AF90AD5
:10092000F3CF2196EDCF991B79E004C0991F96175C
:1009300008F0961B881F7A95C9F780950895AA1B21
:10094000BB1B51E107C0AA1FBB1FA617B70710F0BA
:10095000A61BB70B881F991F5A95A9F780959095EC
:10096000BC01CD010895A1E21A2EAA1BBB1BFD01FB
:100970000DC0AA1FBB1FEE1FFF1FA217B307E4077E
:10098000F50720F0A21BB30BE40BF50B661F771FD6
:10099000881F991F1A9469F76095709580959095B6
:1009A0009B01AC01BD01CF01089568940013E89448
:1009B000A0E0B0E0EDEDF4E01DC0EFEFE7F9590184
:1009C0006A015E23550FEE08FE2C87019B01AC01E6
:1009D0009E23990F660B762FCB013BD0CDB7DEB7A8
:1009E000EAE024C02F923F924F925F926F927F92E3
:1009F0008F929F92AF92BF92CF92DF92EF92FF922F
:100A00000F931F93CF93DF93CDB7DEB7CA1BDB0BDA
:100A10000FB6F894DEBF0FBECDBF09942A8839887F
:100A200048885F846E847D848C849B84AA84B98486
:100A3000C884DF80EE80FD800C811B81AA81B98192
:100A4000CE0FD11D0FB6F894DEBF0FBECDBFED01A6
:100A50000895DF93CF939F92A0E49A2E0024D001B3
:100A6000E001F00116950795F794E794D794C794A1
:100A7000B794A79448F41068A20FB31FC41FD51FE2
:100A8000E61FF71F081E191E220F331F441F551F94
:100A9000661F771F881F991F9A9421F79D01AE0149
:100AA000BF01C00111249F90CF91DF910895E1997A
:100AB000FECF1FBA8EBBE09A99278DB30895F894A4
:020AC000FFCF66
:100AC2008F913D003002200055000100057008386A
:100AD2002030020000C1BB00301F0140037F000034
:100AE20000000000000000005500050102DB00FFCD
:00000001FF
