:1000000022C13CC13BC13AC121C338C137C136C14D
:1000100035C134C125C332C131C130C12FC12EC158
:100020002DC12CC12BC12AC129C1726561645F69D0
:100030006E74657276616C3D90207365630A0A0088
:10004000726561645F6572726F725F7265747279F6
:100050003D90207365630A00626174745F353D9062
:100060000A00626174745F343D900A0062617474C6
:100070005F333D900A00626174745F323D900A0004
:10008000626174745F313D900A006D617267696EE0
:100090005F4C4F573D900A006D617267696E5F4813
:1000A0004947483D900A00616C61726D5F4C4F5743
:1000B0003D900A00616C61726D5F484947483D9010
:1000C0000A006F66667365743D900A00736C6F700A
:1000D000653D900A00434C4B50523D900A000A0A7D
:1000E0000A5854414C0A00202D3E2090206D67256F
:1000F0000A005D203D2090007261775B9000202017
:1001000020206661696C656420626C6F636B3A20C5
:1001100023900A0020424143420A002043424143C7
:100120000A0020414342410A002C20686973745F31
:100130006964783A2023900A0020207472656E6406
:100140005F6964783A20239000905D2000626C6BB8
:10015000209020205B00626164204649464F206C5D
:10016000656E6774680049534F206572726F722024
:10017000004649464F5F6C656E203E2031300020BE
:1001800028802900206174206C696E6520002A2A6D
:100190002A2000626C6F636B206E756D6265720061
:1001A0006D697373696E67205278206F722054787E
:1001B00020496E74657272757074004952515F53B4
:1001C000544154555320213D2030004649464F208C
:1001D0006C656E203E2030006E65772D64656C7412
:1001E000615F484947483A20900A006E65772D6460
:1001F000656C74615F4C4F573A20900A00696E69D4
:100200002D64656C74615F484947483A20900A0044
:10021000696E692D64656C74615F4C4F573A20902C
:100220000A00676C75636F73653A20900A0020625C
:100230006174743D900A0020737461743D80007095
:100240006173733D900011241FBECFE5D1E0DEBF86
:10025000CDBF10E0A0E6B0E0E2E8FFE002C005900C
:100260000D92A038B107D9F720E0A0E8B0E001C0B6
:100270001D92A53BB207E1F7DDD481C6C1CE90E067
:100280009F6F880F991F2CE041E180FF03C0C69A41
:10029000919A03C0C6989198919895958795342F17
:1002A0003A95F1F7215089F70895CF92DF92EF92B6
:1002B000FF926B017C011FBC80E1C816D104E104F0
:1002C000F10448F489E08EBDC701B60120E030E4B6
:1002D00048E350E015C081E8C8168EE3D806E10473
:1002E000F10430F050E8C52E5EE3D52EE12CF12C60
:1002F0008DE08EBDC701B60120E13EE040E050E058
:10030000B6D5B901CA0128EE33E040E050E08BD504
:100310003BBD2ABD1DBC1CBC80E488BF89BF85B71E
:100320008F7A85BF85B7806285BF78948895F89469
:1003300085B78F7D85BF19BEC701B601FF90EF90CD
:10034000DF90CF900895DF92EF92FF920F931F936B
:10035000CF93DF93CDB7DEB72A970FB6F894DEBF01
:100360000FBECDBF8C0197FF05C08DE288DF1195D0
:1003700001951109FE01319640E0DD24D3947F01FF
:100380002AE030E04F5FC801B9013AD5819381116D
:10039000D42EC801B90134D58B014A3099F7DA94CB
:1003A000F701ED0DF11D8081805D69DFD110F7CF80
:1003B0002A960FB6F894DEBF0FBECDBFDF91CF9166
:1003C0001F910F91FF90EF90DF9008959091910011
:1003D00020918F00920F891718F01092B2000895A3
:1003E000981B9093B200089590918E0020919000F8
:1003F000921B981718F01092B1000895891B8093F2
:10040000B1000895FF920F931F93CF93DF939398BA
:10041000162FFB012E2F211B241798F5DC010D91BF
:10042000CD0128E030E0A0E850E0BA2FB02311F071
:10043000C29A01C0C298929ABBE7BA95F1F7859B20
:1004400003C0CFEFD0E002C0C0E0D0E0B0E0CA23EC
:10045000DB235C2B9298C6EFCA95F1F7B595A7956B
:10046000215031092115310501F76115710509F098
:100470005083ACECB1E01197F1F700C00000319669
:10048000C9CFC298939A61E070E080E090E0DF917C
:10049000CF911F910F91FF9008CFCF93DF9300D0A2
:1004A000CDB7DEB789836A8342E060E070E0CE01B9
:1004B0000196A8DF0F900F90DF91CF910895CF9311
:1004C000DF9300D01F92CDB7DEB78CE689838DE431
:1004D0008A831B8243E0BE016F5F7F4FCB0192DFB7
:1004E0008A810F900F900F90DF91CF910895CF9355
:1004F000C82F282F30E084E0359527958A95E1F7BD
:100500002A3010F480E301C087E3820FB8DECF7099
:10051000CA3010F480E301C087E38C0FCF91AFCED7
:100520000F931F93CF93DF93162F072FEC01FE013C
:100530008491882399F0813829F0803941F08038FE
:1005400051F402C0802FD3DF812FD1DF05C0812F6E
:10055000902FF9DE01C093DE2196E9CFDF91CF9194
:100560001F910F910895EF92FF920F931F93CF93D6
:10057000DF937C018B01EA016FEF7FEF8EE891E062
:10058000CFDF6FEF7FEFC701CBDF6FEF7FEF84E847
:1005900091E0C6DFC801D7DECF3F8FEFD80721F04B
:1005A000BE018FE791E0BCDF8AE0DF91CF911F9120
:1005B0000F91FF90EF9063CEDF92EF92FF920F9337
:1005C0001F93CF93DF93E82FF0E0E058FF4FC381F4
:1005D000CF70D0E0DC2FCC278281C82BBE0180E019
:1005E00090E020918C0030E040E050E040D4B90130
:1005F000CA0128EE33E040E050E015D400918D00B0
:10060000112707FD1095020F131FD0909B00ED2CB2
:10061000F12CB70188EF90E083DFBE0182EF90E01C
:100620007FDFB80187EE90E07BDFD394D0929B0010
:10063000F701E456FF4F169507950083DF91CF91A0
:100640001F910F91FF90EF90DF9008951F920F92EE
:100650000FB60F9211240F900FBE0F901F90189598
:100660001F920F920FB60F9211248F939F938CB508
:100670009DB59093AD008093AC009F918F910F90AA
:100680000FBE0F901F901895CF93DF93ACE9B0E0A9
:1006900080E021E0280F922FE92FF0E0E456FF4F91
:1006A000C82FD0E0C456DF4F40813881431708F48B
:1006B000892F9F5F9F3080F39C91E82FF0E0E456F4
:1006C000FF4F80818D9390832E3011F0822FE1CFE8
:1006D000DF91CF91089580FF08C0C49A68E572E069
:1006E00080E090E0E2DDC49807C0949A68E572E08B
:1006F00080E090E0DADD949868EC70E080E090E0D3
:10070000D4CD82E488B989E993E00197F1F700C07C
:100710001FBC81E08EBD8FE097E29093AD00809387
:10072000AC008AE588B9B898C09A1DBC1CBC789406
:1007300089E993E00197F1F700C0F89482E988B95C
:10074000C098B89AC0980895AF92BF92CF92DF92A6
:10075000EF92FF920F931F93CF93DF9300D000D0BF
:10076000CDB7DEB7F090B0000F2D10E08F2D86953D
:100770008695B1DFC80195958795ADDF8F2DABDFED
:10078000C0DF8091990090919A00892B31F580917A
:10079000AC009091AD00F3E096958795FA95E1F75E
:1007A00090919200891770F490919300891760F4EA
:1007B00090919400891750F490919500891740F416
:1007C00085E007C081E005C082E003C083E001C08E
:1007D00084E048EC68EC70E0B8D1609199007091C9
:1007E0009A008FE392E09CDE6091B00070E087E3B6
:1007F00092E096DE6091AC007091AD008EE292E0E6
:100800008FDED7D110929B0080E290E09093B400ED
:100810008093B30003E010E06CE5C62E7FE8B72EAE
:10082000E3E0AE2ED02EC982CA8242E0BE016F5FE5
:100830007F4FCB01E7DD4A81442369F050E065E555
:1008400072E08BEC91E08FDEBB8241E060E070E013
:10085000CE010396D7DD33DE882339F0482F50E0F0
:100860006CE572E08BEB91E07EDED092670048E0B1
:1008700060E070E080E690E0C5DD6EE170E080E071
:1008800090E013DD1CDE982F907C903C79F0482F8F
:1008900050E068E672E080EA91E065DE4D2D50E0C0
:1008A00069E672E083E991E05EDE1CC1C982CA821A
:1008B00042E0BE016F5F7F4FCB01A4DD2A812F771D
:1008C0002B3038F0422F50E06AED71E081E791E083
:1008D0001DC041E0420F60E870E085E790E02C83A6
:1008E00091DD409181002C81223031F450E065EEA1
:1008F00071E086E691E00AC04111F8CF2930E9F0B5
:10090000422F50E06BEE71E086E591E02CDE44E68C
:1009100068EC70E083E019D18D2D63E051D2913005
:1009200009F059C0E0919B0081E08E0F80939B00FD
:10093000F0E0E456FF4F10824EC0B8018DE491E024
:10094000EFDDB80143E0660F771F4A95E1F789E4D0
:1009500091E0E6DD5AE8E52E50E0F52EF7018291B0
:100960007F01C5DDF2E8EF16F0E0FF06B9F723E0FE
:10097000D21212C0F0908500F092AE006091840017
:100980006093AF0070E089E391E0CADD6F2D70E005
:1009900089E291E0C5DD2FC08D2D6A2D11D29130F5
:1009A00059F0923081F46FEF7FEF8BE191E0B8DD89
:1009B00086E002DE80E00DC06FEF7FEF82E291E023
:1009C000AFDD82E006C06FEF7FEF84E191E0A8DD4C
:1009D00084E0F2DD10C0E0919B0081E08E0F8093F7
:1009E0009B00F0E0E456FF4F10826D2D70E08EEF1B
:1009F00090E096DD77C063DD0F5F1F4F0F3011056C
:100A000009F010CF60E180E090E047DDC7983CDE60
:100A1000EFE9F0E080E090E02191820F911D20E06D
:100A2000E83AF207C9F769E070E0D6D18B01660FAA
:100A3000771F82E292E074DD8091AB00811118C0D3
:100A40000093AB0087E08093B000802FBFDC802F45
:100A5000CBDC6091B200660F770B80E192E060DD45
:100A60006091B100660F770B8DEF91E059DD52C0B8
:100A700090E008171907D8F08091B200882349F058
:100A8000802FA4DC6091B200660F770B8BEE91E0B3
:100A900047DD86E08093B0008091B10090918E0098
:100AA000890F90E080179107A8F5949A29C080914A
:100AB000B100882349F0802F97DC6091B100660F68
:100AC000770B88ED91E02CDD84E08093B00080917D
:100AD0008F009091B200891B90E008171907D0F49D
:100AE000C49A0EC060E180E090E0D7DC83E08093A0
:100AF000B00044E664E670E028D0609197000CC036
:100B000048EC64EF71E08CEA20D060ED77E080E0A3
:100B100090E00CC06091980070E080E090E020E4EC
:100B20003FE140E050E0A1D1B901CA010F900F9020
:100B30000F900F90DF91CF911F910F91FF90EF9049
:100B4000DF90CF90BF90AF9008958F929F92AF9219
:100B5000BF92CF92DF92EF92FF920F931F93CF93AA
:100B6000DF93B59B19C000E010E0C82FD0E06B0107
:100B7000E12CF12C842E912CA12CB12C0C171D07EB
:100B80005CF49698C701B60190DB969AC501B40152
:100B90008CDB0F5F1F4FF2CFDF91CF911F910F9131
:100BA000FF90EF90DF90CF90BF90AF909F908F908D
:100BB0000895CF93DF9300D01F92CDB7DEB7C79AC9
:100BC0006AE070E080E090E070DB83E88B8341E0D6
:100BD00060E070E0CE01039615DC80E88A8341E096
:100BE00060E070E0CE0102960DDC8FE8898341E081
:100BF00060E070E0CE01019605DC60E180E090E00D
:100C00004CDC60E081E090E048DC60E088E190E06E
:100C100044DC4DE060E070E088E690E0F3DB6AE001
:100C200070E080E090E041DB0F900F900F90DF913B
:100C3000CF910895CBE8D0E0E12CF12CC70197D1FA
:100C400089938FEFE81AF80A8EE0E816F104B1F7FD
:100C500083E08ABB9DED97BB9EE591BB1BBA98E2F2
:100C600098BB98E492BBC69A919A92E898B981B9D8
:100C700062E370E080E090E018DB6FEF7FEF8EEDD5
:100C800090E04EDC66B570E085ED90E049DC609167
:100C90008C0070E08CEC90E043DC60918D00772755
:100CA00067FD709582EC90E03BDC60918E0070E017
:100CB000660F771F84EB90E033DC60918F0070E06B
:100CC000660F771F87EA90E02BDC6091900070E060
:100CD000660F771F88E990E023DC6091910070E057
:100CE000660F771F8AE890E01BDC6091920070E04D
:100CF00093E0660F771F9A95E1F780E890E010DCAB
:100D00006091930070E023E0660F771F2A95E1F76A
:100D100086E790E005DC6091940070E033E0660FB8
:100D2000771F3A95E1F78CE690E0FADB6091950049
:100D300070E043E0660F771F4A95E1F782E690E0A6
:100D4000EFDB6091960070E053E0660F771F5A95D5
:100D5000E1F788E590E0E4DB6091970070E0E3E084
:100D6000660F771FEA95E1F780E490E0D9DB6091A8
:100D7000980070E0F3E0660F771FFA95E1F78AE2DA
:100D800090E0CEDB10929A0010929900DDDC6B01AE
:100D90007C011C141D041E041F0444F4C701B60189
:100DA00084DAC61AD70AE80AF90AF3CF80919900C3
:100DB00090919A00019690939A0080939900E6CFC3
:100DC000991B79E004C0991F961708F0961B881F9D
:100DD0007A95C9F780950895AA1BBB1B51E107C0FE
:100DE000AA1FBB1FA617B70710F0A61BB70B881FBB
:100DF000991F5A95A9F780959095BC01CD0108954A
:100E000097FB072E16F4009406D077FD08D0E4DF98
:100E100007FC05D03EF4909581959F4F08957095FD
:100E200061957F4F0895A1E21A2EAA1BBB1BFD01FD
:100E30000DC0AA1FBB1FEE1FFF1FA217B307E407B9
:100E4000F50720F0A21BB30BE40BF50B661F771F11
:100E5000881F991F1A9469F76095709580959095F1
:100E60009B01AC01BD01CF01089568940013E89483
:100E7000A0E0B0E0EDE3F7E01DC0EFEFE7F95901C6
:100E80006A015E23550FEE08FE2C87019B01AC0121
:100E90009E23990F660B762FCB013BD0CDB7DEB7E3
:100EA000EAE024C02F923F924F925F926F927F921E
:100EB0008F929F92AF92BF92CF92DF92EF92FF926A
:100EC0000F931F93CF93DF93CDB7DEB7CA1BDB0B16
:100ED0000FB6F894DEBF0FBECDBF09942A883988BB
:100EE00048885F846E847D848C849B84AA84B984C2
:100EF000C884DF80EE80FD800C811B81AA81B981CE
:100F0000CE0FD11D0FB6F894DEBF0FBECDBFED01E1
:100F10000895DF93CF939F92A0E49A2E0024D001EE
:100F2000E001F00116950795F794E794D794C794DC
:100F3000B794A79448F41068A20FB31FC41FD51F1D
:100F4000E61FF71F081E191E220F331F441F551FCF
:100F5000661F771F881F991F9A9421F79D01AE0184
:100F6000BF01C00111249F90CF91DF910895E199B5
:100F7000FECF1FBA8EBBE09A99278DB30895F894DF
:020F8000FFCFA1
:100F82008F913D00300220002030020000C1BB00E2
:100F9200301F0140037F000000000000000000003D
:00000001FF
