:1000000014C02EC02DC02CC02EC12AC029C028C0AB
:1000100027C026C032C124C023C022C021C020C0B6
:100020001FC01EC01DC01CC01BC011241FBECFE5B9
:10003000D1E0DEBFCDBF10E0A0E6B0E0EEEAF9E02F
:1000400002C005900D92A038B107D9F720E0A0E8D2
:10005000B0E001C01D92A33BB207E1F782D3A5C473
:10006000CFCFCF92DF92EF92FF926B017C011FBC4A
:1000700080E1C816D104E104F10448F489E08EBDA2
:10008000C701B60120E039E04DE350E015C081E83A
:10009000C8168EE3D806E104F10430F080E8C82EDB
:1000A0008EE3D82EE12CF12C8DE08EBDC701B60178
:1000B00022E43FE040E050E0E2D3B901CA0128EE7B
:1000C00033E040E050E0B7D33BBD2ABD1DBC1CBCB3
:1000D00080E488BF89BF85B78F7A85BF85B7806286
:1000E00085BF78948895F89485B78F7D85BF19BEB4
:1000F000C701B601FF90EF90DF90CF900895E82FF1
:10010000F0E0E058FF4F63816F7070E0762F662754
:100110008281682B80E090E020918C0030E040E00C
:1001200050E0ADD3B901CA0128EE33E040E050E021
:1001300082D380918D00992787FD9095820F931F20
:10014000E091990021E02E0F20939900F0E0E6560F
:10015000FF4F9695879580830895FF920F931F9385
:10016000CF93DF939398162FFB012E2F211B24177B
:10017000B8F5DC010D91CD0128E030E0A0E850E0B9
:10018000BA2FB02311F0C29A01C0C298929AB5E872
:10019000BA95F1F70000859B03C0CFEFD0E002C015
:1001A000C0E0D0E0B0E0CA23DB235C2B9298C7EC20
:1001B000D0E02197F1F700C00000B595A795215038
:1001C000310921153105E1F66115710509F05083FA
:1001D000A3EFB1E01197F1F700C000003196C5CF51
:1001E000C298939A61E070E080E090E0DF91CF9157
:1001F0001F910F91FF9035CFCF93DF9300D0CDB7F4
:10020000DEB789836A8342E060E070E0CE01019648
:10021000A4DF0F900F90DF91CF910895CF93DF93DC
:1002200000D01F92CDB7DEB78CE689838DE48A8338
:100230001B8243E0BE016F5F7F4FCB018EDF8A815F
:100240000F900F900F90DF91CF910895682F8091BC
:10025000B1009091B2009C012F5F3F4F3093B200EC
:100260002093B10094C31F920F920FB60F921124E6
:100270000F900FBE0F901F9018951F920F920FB600
:100280000F9211248F939F938CB59DB59093AD00E1
:100290008093AC009F918F910F900FBE0F901F9095
:1002A0001895CF93DF93AAE9B0E080E021E0280F12
:1002B000922FE92FF0E0E656FF4FC82FD0E0C65648
:1002C000DF4F40813881431708F4892F9F5F9F30AB
:1002D00080F39C91E82FF0E0E656FF4F80818D93EC
:1002E00090832E3011F0822FE1CFDF91CF910895CE
:1002F00080FF08C0C49A68E572E080E090E0B1DE5B
:10030000C49807C0949A68E572E080E090E0A9DEA6
:10031000949868EC70E080E090E0A3CE82E488B925
:1003200087EE93E00197F1F700C000001FBC81E069
:100330008EBD8FE097E29093AD008093AC008AE58C
:1003400088B9B898C09A1DBC1CBC789487EE93E01D
:100350000197F1F700C00000F89482E988B9C098CD
:10036000B89AC0980895AF92BF92CF92DF92EF9261
:10037000FF920F931F93CF93DF9300D01F92CDB7BF
:10038000DEB77C01D090B0000D2D10E08D2D86954C
:100390008695AEDFC80195958795AADF8D2DA8DFDC
:1003A000BDDFE114F10431F58091AC009091AD0016
:1003B00023E0969587952A95E1F790919200891709
:1003C00070F490919300891760F4909194008917CC
:1003D00050F490919500891740F485E007C081E0C2
:1003E00005C082E003C083E001C084E048EC68EC13
:1003F00070E081D14DE060E070E088E690E0ADDE35
:100400006AE070E080E090E02CDE1092990080E2DB
:1004100090E09093B2008093B10013E0D12E0CE5F0
:10042000C02E8FE8B82E93E0A92EC982CA8242E07E
:10043000BE016F5F7F4FCB0190DE8A81882339F048
:10044000BB8241E060E070E0CE01039686DEE6DE2E
:10045000D092670048E060E070E080E690E07DDEEA
:100460006EE170E080E090E0FCDDD8DE807C803CD6
:1004700009F0EBC0C982CA8242E0BE016F5F7F4FC4
:10048000CB016BDE1A811F771B30D8F541E0410F9D
:1004900060E870E085E790E060DE193091F58091CA
:1004A000810081112EC023E0D21209C08091850005
:1004B0008093AE00809184008093AF0041C0809112
:1004C000AE00C4DE8091AF00C1DE8D2DBFDE0AE834
:1004D00010E0F80182918F01B9DEF0E002381F07C9
:1004E000C1F78D2D6A2D87D1913031F0923031F4E2
:1004F00086E005DE80E003C082E001C084E0FFDD2D
:100500001FC044E668EC70E083E0F5D08D2D63E019
:1005100072D1913051F4E091990081E08E0F809377
:100520009900F0E0E656FF4F1082E091990081E0DB
:100530008E0F80939900F0E0E656FF4F108285C041
:100540006DDED394FFE0DF1270CF10E060E180E059
:1005500090E052DE112351F083E08093B00044E636
:1005600064E670E0C8D0609197007DC09ADEEDE946
:10057000F0E020E030E08191280F311D80E0E63A84
:10058000F807C9F7C90169E070E041D18B018E2DF0
:100590005DDE802F5BDE8091AA0058DE80918F00A7
:1005A00055DE80918E0052DE8091AA009091AB00C2
:1005B0000097D9F41093AB000093AA0087E08093D2
:1005C000B00080919000800F90919100091B909154
:1005D0008F00091710F400938F0090918E009817E8
:1005E00008F03FC080938E003CC008171907B0F098
:1005F0008091900090918E009E3728F0800F89178F
:1006000010F480938E0086E08093B00080918E007D
:1006100090E08017910728F5949A19C08091910075
:1006200090918F00913230F4E02FE81B9E1710F468
:10063000E0938F0084E08093B00080918F0090E081
:100640000817190770F4C49A02C011E07FCF48EC74
:1006500064EF71E08CEA4FD060ED77E080E090E0ED
:100660000CC06091980070E080E090E020E43FE1F1
:1006700040E050E002D1B901CA010F900F900F90F5
:10068000DF91CF911F910F91FF90EF90DF90CF906E
:10069000BF90AF900895CF93DF9300D01F92CDB756
:1006A000DEB783E88B8341E060E070E0CE01039623
:1006B00054DD80E88A8341E060E070E0CE0102967C
:1006C0004CDD8FE8898341E060E070E0CE01019667
:1006D00044DD60E180E090E08FDD60E081E090E06B
:1006E0008BDD60E088E190E087DD0F900F900F9048
:1006F000DF91CF9108958F929F92AF92BF92CF9248
:10070000DF92EF92FF920F931F93CF93DF9390911D
:10071000A90095FF19C000E010E0C82FD0E06B01E0
:10072000E12CF12C842E912CA12CB12C0C171D073F
:100730005CF49698C701B60194DC969AC501B401A1
:1007400090DC0F5F1F4FF2CFDF91CF911F910F9180
:10075000FF90EF90DF90CF90BF90AF909F908F90E1
:100760000895CBE8D0E0E12CF12CC70108D18993A2
:100770008FEFE81AF80A8EE0E816F104B1F783E08B
:100780008ABB9DED97BB3EE531BB1BBA98EA98BB8F
:1007900090E492BB20E826BD16BC1FBC1EBC46B32D
:1007A0004093A90018BA8ABB4DEF47BB31BB1BBAB7
:1007B00028BB92BB939A9298C29892E898B981B953
:1007C00062E370E080E090E04CDC65DFC0E0D0E008
:1007D000CE01C9DD6B017C011C141D041E041F0425
:1007E00044F4C701B6013DDCC61AD70AE80AF90A83
:1007F000F3CF2196EDCF991B79E004C0991F96178E
:1008000008F0961B881F7A95C9F780950895AA1B52
:10081000BB1B51E107C0AA1FBB1FA617B70710F0EB
:10082000A61BB70B881F991F5A95A9F7809590951D
:10083000BC01CD010895A1E21A2EAA1BBB1BFD012C
:100840000DC0AA1FBB1FEE1FFF1FA217B307E407AF
:10085000F50720F0A21BB30BE40BF50B661F771F07
:10086000881F991F1A9469F76095709580959095E7
:100870009B01AC01BD01CF01089568940013E89479
:10088000A0E0B0E0E5E4F4E01DC0EFEFE7F95901C6
:100890006A015E23550FEE08FE2C87019B01AC0117
:1008A0009E23990F660B762FCB013BD0CDB7DEB7D9
:1008B000EAE024C02F923F924F925F926F927F9214
:1008C0008F929F92AF92BF92CF92DF92EF92FF9260
:1008D0000F931F93CF93DF93CDB7DEB7CA1BDB0B0C
:1008E0000FB6F894DEBF0FBECDBF09942A883988B1
:1008F00048885F846E847D848C849B84AA84B984B8
:10090000C884DF80EE80FD800C811B81AA81B981C3
:10091000CE0FD11D0FB6F894DEBF0FBECDBFED01D7
:100920000895DF93CF939F92A0E49A2E0024D001E4
:10093000E001F00116950795F794E794D794C794D2
:10094000B794A79448F41068A20FB31FC41FD51F13
:10095000E61FF71F081E191E220F331F441F551FC5
:10096000661F771F881F991F9A9421F79D01AE017A
:10097000BF01C00111249F90CF91DF910895E199AB
:10098000FECF1FBA8EBBE09A99278DB30895262F0C
:10099000E199FECF1CBA1FBA8EBB2DBB0FB6F894DF
:0E09A000E29AE19A0FBE01960895F894FFCFF7
:1009AE008F913D00300220002030020000C1BB00BC
:1009BE00301F0140037F0000000000000000000017
:00000001FF
