:100000001AC134C133C132C1FDC230C12FC12EC1AA
:100010002DC12CC101C32AC129C128C127C126C1B4
:1000200025C124C123C122C121C1726561645F69F8
:100030006E74657276616C3D90207365630A0A0088
:10004000726561645F6572726F725F7265747279F6
:100050003D90207365630A00626174745F353D9062
:100060000A00626174745F343D900A0062617474C6
:100070005F333D900A00626174745F323D900A0004
:10008000626174745F313D900A006D617267696EE0
:100090005F4C4F573D900A006D617267696E5F4813
:1000A0004947483D900A00616C61726D5F4C4F5743
:1000B0003D900A00616C61726D5F484947483D9010
:1000C0000A006F66667365743D900A00736C6F700A
:1000D000653D900A00434C4B50523D900A000A0A7D
:1000E0000A5854414C0A00202D3E2090206D67256F
:1000F0000A005D203D2090007261775B9000202017
:1001000020206661696C656420626C6F636B3A20C5
:1001100023900A0020424341420A002043414243C7
:100120000A0020414243410A002C20686973745F31
:100130006964783A2023900A0020207472656E6406
:100140005F6964783A20239000905D2000626C6BB8
:10015000209020205B00626164204649464F206C5D
:10016000656E6774680049534F206572726F722024
:10017000004649464F5F6C656E203E2031300020BE
:1001800028802900206174206C696E6520002A2A6D
:100190002A2000626C6F636B206E756D6265720061
:1001A0006D697373696E67205278206F722054787E
:1001B00020496E74657272757074004952515F53B4
:1001C000544154555320213D2030004649464F208C
:1001D0006C656E203E2030006E65772D6C6F773A2F
:1001E00020900A006E65772D686967683A20900A4A
:1001F00000696E692D686967683A20900A00696E27
:10020000692D6C6F773A20900A00676C75636F7385
:10021000653A20900A0020626174743D900A0020C3
:10022000737461743D800020696E69423D80007086
:100230006173733D900011241FBECFE5D1E0DEBF96
:10024000CDBF10E0A0E6B0E0EAE8FFE002C0059014
:100250000D92A038B107D9F720E0A0E8B0E001C0C6
:100260001D92A53BB207E1F7D7D48DC6C9CE90E069
:100270009F6F880F991F2CE041E180FF03C0C69A51
:10028000919A03C0C6989198919895958795342F27
:100290003A95F1F7215089F70895CF92DF92EF92C6
:1002A000FF926B017C011FBC80E1C816D104E10400
:1002B000F10448F489E08EBDC701B60120E030E4C6
:1002C00048E350E015C081E8C8168EE3D806E10483
:1002D000F10430F050E8C52E5EE3D52EE12CF12C70
:1002E0008DE08EBDC701B60120E13EE040E050E068
:1002F000C2D5B901CA0128EE33E040E050E097D5FD
:100300003BBD2ABD1DBC1CBC80E488BF89BF85B72E
:100310008F7A85BF85B7806285BF78948895F89479
:1003200085B78F7D85BF19BEC701B601FF90EF90DD
:10033000DF90CF900895DF92EF92FF920F931F937B
:10034000CF93DF93CDB7DEB72A970FB6F894DEBF11
:100350000FBECDBF8C0197FF05C08DE288DF1195E0
:1003600001951109FE01319640E0DD24D3947F010F
:100370002AE030E04F5FC801B90146D58193811171
:10038000D42EC801B90140D58B014A3099F7DA94CF
:10039000F701ED0DF11D8081805D69DFD110F7CF90
:1003A0002A960FB6F894DEBF0FBECDBFDF91CF9176
:1003B0001F910F91FF90EF90DF900895FF920F93A0
:1003C0001F93CF93DF939398162FFB012E2F211BA2
:1003D000241798F5DC010D91CD0128E030E0A0E86C
:1003E00050E0BA2FB02311F0C29A01C0C298929A7D
:1003F000BBE7BA95F1F7859B03C0CFEFD0E002C011
:10040000C0E0D0E0B0E0CA23DB235C2B9298C6EFBB
:10041000CA95F1F7B595A7952150310921153105F8
:1004200001F76115710509F05083ACECB1E011974B
:10043000F1F700C000003196C9CFC298939A61E0ED
:1004400070E080E090E0DF91CF911F910F91FF90DD
:1004500024CFCF93DF9300D0CDB7DEB789836A83F3
:1004600042E060E070E0CE010196A8DF0F900F90AF
:10047000DF91CF910895CF93DF9300D01F92CDB736
:10048000DEB78CE689838DE48A831B8243E0BE015C
:100490006F5F7F4FCB0192DF8A810F900F900F909B
:1004A000DF91CF910895CF93C82F282F30E084E0BB
:1004B000359527958A95E1F72A3010F480E301C03D
:1004C00087E3820FD4DECF70CA3010F480E301C01E
:1004D00087E38C0FCF91CBCE0F931F93CF93DF93F6
:1004E000162F072FEC01FE018491882399F08138A3
:1004F00029F0803941F0803851F402C0802FD3DFD9
:10050000812FD1DF05C0812F902F15DF01C0AFDE15
:100510002196E9CFDF91CF911F910F910895EF922E
:10052000FF920F931F93CF93DF937C018B01EA011E
:100530006FEF7FEF8EE891E0CFDF6FEF7FEFC701C6
:10054000CBDF6FEF7FEF84E891E0C6DFC801F3DE19
:10055000CF3F8FEFD80721F0BE018FE791E0BCDFDE
:100560008AE0DF91CF911F910F91FF90EF907FCEA6
:10057000DF92EF92FF920F931F93CF93DF93E82FB9
:10058000F0E0E058FF4FC381CF70D0E0DC2FCC27E4
:100590008281C82BBE0180E090E020918C0030E089
:1005A00040E050E068D4B901CA0128EE33E040E0F1
:1005B00050E03DD400918D00112707FD1095020FEA
:1005C000131FD0909B00ED2CF12CB70188EF90E029
:1005D00083DFBE0182EF90E07FDFB80187EE90E01D
:1005E0007BDFD394D0929B00F701E456FF4F169522
:1005F00007950083DF91CF911F910F91FF90EF90AE
:10060000DF9008951F920F920FB60F9211240F9052
:100610000FBE0F901F9018951F920F920FB60F925A
:1006200011248F939F938CB59DB59093AF008093C9
:10063000AE009F918F910F900FBE0F901F90189555
:10064000CF93DF93ACE9B0E080E021E0280F922F58
:10065000E92FF0E0E456FF4FC82FD0E0C456DF4F3B
:1006600040813881431708F4892F9F5F9F3080F3C2
:100670009C91E82FF0E0E456FF4F80818D939083AA
:100680002E3011F0822FE1CFDF91CF91089580FFBE
:1006900008C0C49A68E572E080E090E0FEDDC4988E
:1006A00007C0949A68E572E080E090E0F6DD9498E7
:1006B00068EC70E080E090E0F0CD82E488B989E9F0
:1006C00093E00197F1F700C01FBC81E08EBD8FE081
:1006D00097E29093AF008093AE008AE588B9B8980E
:1006E000C09A1DBC1CBC789489E993E00197F1F78E
:1006F00000C0F89482E988B9C098B89AC098089563
:10070000AF92BF92CF92DF92EF92FF920F931F931F
:10071000CF93DF9300D000D0CDB7DEB7F090B2001A
:100720000F2D10E08F2D86958695B1DFC801959528
:100730008795ADDF8F2DABDFC0DF80919900909161
:100740009A00892B31F58091AE009091AF0033E093
:10075000969587953A95E1F790919200891770F4F4
:1007600090919300891760F490919400891750F448
:1007700090919500891740F485E007C081E005C09D
:1007800082E003C083E001C084E048EC68EC70E0E4
:100790000DD26091990070919A008FE292E09CDEF8
:1007A0006091AB0070E087E292E096DE6091B2006B
:1007B00070E08FE192E090DE6091AE007091AF004A
:1007C00086E192E089DE4DE060E070E088E690E04E
:1007D000F5DD6AE070E080E090E05FDD10929B0064
:1007E00080E290E09093B4008093B30003E010E0C7
:1007F0008CE5C82E9FE8B92E23E0A22ED02EC98208
:10080000CA8242E0BE016F5F7F4FCB01D7DD4A81D4
:10081000442369F050E06FE372E08BEC91E07FDEFF
:10082000BB8241E060E070E0CE010396C7DD23DECD
:10083000882339F0482F50E066E472E08BEB91E0BA
:100840006EDED092670048E060E070E080E690E005
:10085000B5DD6EE170E080E090E01FDD0CDE982FEA
:10086000907C903C79F0482F50E062E572E080EA9D
:1008700091E055DE4D2D50E063E572E083E991E0B3
:100880004EDE31C1C982CA8242E0BE016F5F7F4F36
:10089000CB0194DD2A812F772B3038F0422F50E0A6
:1008A00065EC71E081E791E01DC041E0420F60E836
:1008B00070E085E790E02C8381DD409181002C8100
:1008C000223031F450E060ED71E086E691E00AC03C
:1008D0004111F8CF2930E9F0422F50E066ED71E088
:1008E00086E591E01CDE44E668EC70E083E05ED1D2
:1008F0008D2D63E069D2913009F059C0E0919B00E1
:1009000081E08E0F80939B00F0E0E456FF4F108251
:100910004EC0B8018DE491E0DFDDB801A3E0660FC1
:10092000771FAA95E1F789E491E0D6DDBAE8EB2ECE
:10093000B0E0FB2EF70182917F01B5DDF2E8EF1602
:10094000F0E0FF06B9F723E0D21212C0F090850064
:10095000F092B000609184006093B10070E089E390
:1009600091E0BADD6F2D70E089E291E0B5DD2FC036
:100970008D2D6A2D29D2913059F0923081F46FEF8C
:100980007FEF8BE191E0A8DD86E0F2DD80E00DC035
:100990006FEF7FEF82E291E09FDD82E006C06FEFB4
:1009A0007FEF84E191E098DD84E0E2DD10C0E0912A
:1009B0009B0081E08E0F80939B00F0E0E456FF4F98
:1009C00010826D2D70E08EEF90E086DD8CC053DDDF
:1009D0000F5F1F4F0F30110509F010CF60E180E06D
:1009E00090E037DD2DDEEFE9F0E080E090E021914E
:1009F000820F911D20E0E83AF207C9F769E070E044
:100A0000EFD18B01660F771F8AE092E065DD809160
:100A1000AC009091AD00009751F51093AD0000939C
:100A2000AC0087E08093B20080919000800F90919D
:100A30009100091B90918F00091710F400938F000B
:100A400090918E00981710F480938E0060918F0023
:100A500070E0660F771F8EEF91E03EDD60918E00B3
:100A600070E0660F771F81EF91E036DD54C0081704
:100A70001907E0F06091900080918E008E3758F059
:100A8000600F681740F460938E0070E0660F771F68
:100A900084EE91E021DD86E08093B20080918E00AB
:100AA00090E080179107B8F5949A2BC0909191002F
:100AB00080918F00883260F4602F691B861740F4A4
:100AC00060938F0070E0660F771F88ED91E004DD82
:100AD00084E08093B20080918F0090E0081719079E
:100AE000D0F4C49A0EC060E180E090E0B2DC83E014
:100AF0008093B20044E664E670E058D060919700BD
:100B00000CC048EC64EF71E08CEA50D060ED77E007
:100B100080E090E00CC06091980070E080E090E090
:100B200020E43FE140E050E0A4D1B901CA010F90B8
:100B30000F900F900F90DF91CF911F910F91FF9029
:100B4000EF90DF90CF90BF90AF900895CF93DF9359
:100B500000D01F92CDB7DEB783E88B8341E060E021
:100B600070E0CE0103962ADC80E88A8341E060E0F1
:100B700070E0CE01029622DC8FE8898341E060E0DC
:100B800070E0CE0101961ADC60E180E090E061DC6B
:100B900060E081E090E05DDC60E088E190E059DCBD
:100BA0000F900F900F90DF91CF9108958F929F92A9
:100BB000AF92BF92CF92DF92EF92FF920F931F936B
:100BC000CF93DF939091AB0095FF19C000E010E048
:100BD000C82FD0E06B01E12CF12C842E912CA12C9C
:100BE000B12C0C171D075CF49698C701B60155DBB4
:100BF000969AC501B40151DB0F5F1F4FF2CFDF9111
:100C0000CF911F910F91FF90EF90DF90CF90BF9009
:100C1000AF909F908F900895CBE8D0E0E12CF12C1D
:100C2000C701A9D189938FEFE81AF80A8EE0E81678
:100C3000F104B1F783E08ABB9DED97BB2EE521BBA4
:100C40001BBA98EA98BB90E492BB1FBC1EBCC69A24
:100C5000919A36B33093AB0018BA8ABB3DEF37BBDD
:100C600021BB1BBA20E828BB92BB939A9298C298EA
:100C700092E898B981B962E370E080E090E00DDB22
:100C800065DF6FEF7FEF8EED90E026DC66B570E0FC
:100C900085ED90E021DC60918C0070E08CEC90E0C0
:100CA0001BDC60918D00772767FD709582EC90E0EA
:100CB00013DC60918E0070E0660F771F84EB90E08C
:100CC0000BDC60918F0070E0660F771F87EA90E081
:100CD00003DC6091900070E0660F771F88E990E078
:100CE000FBDB6091910070E0660F771F8AE890E06F
:100CF000F3DB6091920070E0B3E0660F771FBA9566
:100D0000E1F780E890E0E8DB6091930070E0C3E0F9
:100D1000660F771FCA95E1F786E790E0DDDB60910B
:100D2000940070E0D3E0660F771FDA95E1F78CE668
:100D300090E0D2DB6091950070E083E0660F771F52
:100D40008A95E1F782E690E0C7DB6091960070E05B
:100D500093E0660F771F9A95E1F788E590E0BCDB9A
:100D60006091970070E023E0660F771F2A95E1F706
:100D700080E490E0B1DB6091980070E033E0660FB2
:100D8000771F3A95E1F78AE290E0A6DB10929A008D
:100D900010929900B5DC6B017C011C141D041E042B
:100DA0001F0444F4C701B60178DAC61AD70AE80A64
:100DB000F90AF3CF8091990090919A00019690934F
:100DC0009A0080939900E6CF991B79E004C0991F9F
:100DD000961708F0961B881F7A95C9F78095089595
:100DE000AA1BBB1B51E107C0AA1FBB1FA617B70751
:100DF00010F0A61BB70B881F991F5A95A9F780956D
:100E00009095BC01CD01089597FB072E16F4009430
:100E100006D077FD08D0E4DF07FC05D03EF49095BE
:100E200081959F4F0895709561957F4F0895A1E238
:100E30001A2EAA1BBB1BFD010DC0AA1FBB1FEE1F54
:100E4000FF1FA217B307E407F50720F0A21BB30B9F
:100E5000E40BF50B661F771F881F991F1A9469F71B
:100E600060957095809590959B01AC01BD01CF0177
:100E7000089568940013E894A0E0B0E0E1E4F7E09E
:100E80001DC0EFEFE7F959016A015E23550FEE0827
:100E9000FE2C87019B01AC019E23990F660B762FD8
:100EA000CB013BD0CDB7DEB7EAE024C02F923F9212
:100EB0004F925F926F927F928F929F92AF92BF926A
:100EC000CF92DF92EF92FF920F931F93CF93DF9316
:100ED000CDB7DEB7CA1BDB0B0FB6F894DEBF0FBE73
:100EE000CDBF09942A88398848885F846E847D84C0
:100EF0008C849B84AA84B984C884DF80EE80FD80C2
:100F00000C811B81AA81B981CE0FD11D0FB6F89437
:100F1000DEBF0FBECDBFED010895DF93CF939F924B
:100F2000A0E49A2E0024D001E001F0011695079567
:100F3000F794E794D794C794B794A79448F41068AB
:100F4000A20FB31FC41FD51FE61FF71F081E191ECF
:100F5000220F331F441F551F661F771F881F991FBD
:100F60009A9421F79D01AE01BF01C00111249F9009
:100F7000CF91DF910895E199FECF1FBA8EBBE09A21
:0A0F800099278DB30895F894FFCF70
:100F8A008F913D00300220002030020000C1BB00DA
:100F9A00301F0140037F0000000000000000000035
:00000001FF
