:1000000014C02EC02DC02CC0F4C12AC029C0B2C15A
:1000100027C026C0F8C124C023C022C021C020C0F0
:100020001FC01EC01DC01CC01BC011241FBECFE5B9
:10003000D1E0DEBFCDBF10E0A0E6B0E0E6E3FBE03C
:1000400002C005900D92A039B107D9F720E0A0E9D0
:10005000B0E001C01D92A83CB207E1F745D469C5E4
:10006000CFCF9091C700982728E047E0392F330F72
:1000700097FF03C0932F942701C0932F2150B1F70E
:100080009093C7005D9BFECF8CB90895CF92DF920D
:10009000EF92FF926B017C011FBC80E1C816D10476
:1000A000E104F10448F489E08EBDC701B60120E007
:1000B00030E448E350E015C081E8C8168EE3D80666
:1000C000E104F10430F080E8C82E8EE3D82EE12C54
:1000D000F12C8DE08EBDC701B60120E13EE040E08D
:1000E00050E09FD4B901CA0128EE33E040E050E06F
:1000F00074D43BBD2ABD1DBC1CBC80E488BF89BF35
:1001000085B78F7A85BF85B7806285BF78948895DB
:10011000F89485B78F7D85BF19BEC701B601FF90E2
:10012000EF90DF90CF90089564E670E080E090E07B
:10013000ADDF1AB8899A9198C39A60E177E280E0BE
:1001400090E0A4CFE82FF0E0EF55FF4F63816F7090
:1001500070E0762F66278281682B80E090E0209106
:10016000AD0030E040E050E05CD4B901CA0128EEB7
:1001700033E040E050E031D48091AE00992787FD14
:100180009095820F931F969587950895FF920F93F0
:100190001F93CF93DF939398162FFB012E2F211BD4
:1001A000241798F5DC010D91CD0128E030E0A0E89E
:1001B00050E0BA2FB02311F0C29A01C0C298929AAF
:1001C000BBE7BA95F1F7859B03C0CFEFD0E002C043
:1001D000C0E0D0E0B0E0CA23DB235C2B9298C6EFEE
:1001E000CA95F1F7B595A79521503109211531052B
:1001F00001F76115710509F05083ACECB1E011977E
:10020000F1F700C000003196C9CFC298939A61E01F
:1002100070E080E090E0DF91CF911F910F91FF900F
:1002200035CFCF93DF9300D0CDB7DEB789836A8314
:1002300042E060E070E0CE010196A8DF0F900F90E1
:10024000DF91CF910895CF93DF9300D01F92CDB768
:10025000DEB78CE689838DE48A831B8243E0BE018E
:100260006F5F7F4FCB0192DF8A810F900F900F90CD
:10027000DF91CF9108951F93CF93DF93182FC398E9
:1002800064E670E080E090E001DF88E08AB968E52C
:1002900072E080E090E0FADE8091BA00811127C020
:1002A00088E98AB9C8E6D0E08991DBDE30E0C03762
:1002B000D307D1F71092BE00C498949A789496E927
:1002C00020E14FEF8FE131E0415080403040E1F7D5
:1002D00000C000008091BA00882321F0F89488E0E3
:1002E0008AB905C026BB20BB915059F7F7CF85E5E9
:1002F000B8DE1092C70080E0B4DE8BE0B2DE87E0AB
:10030000B0DE81E0AEDE8091C700ABDE1092C700A8
:1003100082EDA7DE80E2A5DE812FA3DEC091C200C0
:100320008091C3009EDE8C2F9CDE8091C60099DEFA
:100330008FEF97DE8091BD0094DE8091BC0091DE4E
:100340008091BB008EDE80E08CDE80E08ADE8FEF65
:1003500088DE8FEF86DE8FEF84DE8FEF82DE8FEF19
:1003600080DE80E07EDE8091C7007BDEDF91CF9172
:100370001F91DACE1F920F920FB60F9211248F9316
:100380009F93EF93FF938CB19091BA00911128C085
:10039000E091BE00E830D1F01CF4E7FF0BC01BC0B9
:1003A000E930B9F0EA30B9F48093BB0081E0809382
:1003B000BA0011C0FF27E7FDF095E857FF4F908185
:1003C000891749F08FEF8093BE0005C08093BD0070
:1003D00002C08093BC008091BE008F5F8093BE00FE
:1003E000FF91EF919F918F910F900FBE0F901F90F3
:1003F00018951F920F920FB60F9211240F900FBEF7
:100400000F901F9018951F920F920FB60F92112404
:100410008F939F938CB59DB59093C3008093C2003A
:100420009F918F910F900FBE0F901F901895CF93B3
:10043000DF93A1E9B0E090E021E0290F822FE82FBF
:10044000F0E0EF56FF4FC92FD0E0CF56DF4F40818D
:10045000388143170CF4982F8F5F803180F38C9193
:10046000E92FF0E0EF56FF4F90819D938083922F0C
:100470002F3011F7DF91CF9108951F93CF93DF9322
:1004800000D0CDB7DEB7182F9CE599839A8342E060
:10049000BE016F5F7F4FCB0179DE8A81882341F0F7
:1004A0008FE8898341E060E070E0CE0101966EDE66
:1004B000CADE1093670048E060E070E080E690E0FC
:1004C00065DE6EE170E080E090E0E0DDBCDE982F5C
:1004D000907C81E0903C09F480E00F900F90DF91D8
:1004E000CF911F91089580FF08C0C49A68E572E01B
:1004F00080E090E0CBDDC49807C0949A68E572E094
:1005000080E090E0C3DD949868EC70E080E090E0DB
:10051000BDCD82E488B989E993E00197F1F700C085
:100520001FBC81E08EBD8FE097E29093C300809363
:10053000C2008AE588B9B898C09A1DBC1CBC7894E2
:1005400089E993E00197F1F700C0F89482E988B94E
:10055000C098B89AC0980895DF92EF92FF920F93D7
:100560001F93CF93DF9300D0CDB7DEB78C01D0902F
:10057000C600ED2CF12C8D2D86958695B4DFC70134
:1005800095958795B0DF8D2DAEDFC3DF012B31F55B
:100590008091C2009091C30023E0969587952A959B
:1005A000E1F79091B300891770F49091B400891726
:1005B00060F49091B500891750F49091B6008917B6
:1005C00040F485E007C081E005C082E003C083E01D
:1005D00001C084E048EC68EC70E054D14DE060E08C
:1005E00070E080E790E0D2DD6AE070E080E090E0CB
:1005F0004DDD1092900013E00CE5E02E812F3DDFE1
:10060000F82E811176C0E982EA8242E0BE016F5F76
:100610007F4FCB01BBDD0A810F770B3008F046C05E
:1006200041E0400F61EA70E08DE790E0AFDD093016
:10063000E9F58091A200811139C0133049F480910D
:10064000A7008093C4008091A6008093C5004CC091
:10065000812F63E0A2D1009190009130A9F09230F7
:10066000C9F4DD24D394D00ED092900086E06ADDE8
:10067000A02FB0E0AF56BF4F8C930E5F0093900059
:1006800080E060DDED2D0DC081E0800F8093900053
:1006900082E005C081E0800F8093900084E052DD0D
:1006A000E02FF0E0EF56FF4F80831EC044E668EC79
:1006B00070E083E0E7D0812F63E06FD1913051F497
:1006C000E091900081E08E0F80939000F0E0EF5673
:1006D000FF4F1082E091900081E08E0F8093900098
:1006E000F0E0EF56FF4F1082AEDD1F5F103109F0D2
:1006F00085CF60E180E090E094DDFF2059F083E059
:100700008093C60080E0B7DD44E664E670E083E0F5
:10071000B9D072C08CDEE4E9F0E080E090E0219195
:10072000820F911D27FD9A9520E0EE39F207B9F767
:100730006AE070E03ED18091C0009091C1000097C6
:10074000E9F47093C1006093C00087E08093C60015
:100750008091B100860F9091B200262F291B922F15
:100760002091B000921710F49093B0009091AF00D8
:10077000981710F48093AF0010E030C06817790725
:10078000B0F08091B1009091AF009E3728F0860FB5
:10079000891710F48093AF0086E08093C6008091A3
:1007A000AF0090E08617970738F7949A16C08091AB
:1007B000B2009091B000913230F4262F281B92178E
:1007C00010F42093B00084E08093C6008091B000C4
:1007D00090E06817790780F6C49A11E0862F4BDD08
:1007E000112351F048EC64EF71E08CEA4BD060EDDE
:1007F00077E080E090E00CC06091B90070E080E0AC
:1008000090E020E43FE140E050E009D1B901CA01A5
:100810000F900F90DF91CF911F910F91FF90EF906C
:10082000DF900895CF93DF9300D01F92CDB7DEB74E
:1008300083E88B8341E060E070E0CE010396A6DCA4
:1008400080E88A8341E060E070E0CE0102969EDCA1
:100850008FE8898341E060E070E0CE01019696DC8C
:1008600060E180E090E0DDDC60E081E090E0D9DCF8
:1008700060E088E190E0D5DC0F900F900F90DF9161
:10088000CF9108958F929F92AF92BF92CF92DF92B5
:10089000EF92FF920F931F93CF93DF9300E010E04E
:1008A000C82FD0E06B01E12CF12C842E912CA12CCF
:1008B000B12C0C171D075CF49698C701B601E6DB56
:1008C000969AC501B401E2DB0F5F1F4FF2CFDF91B3
:1008D000CF911F910F91FF90EF90DF90CF90BF903D
:1008E000AF909F908F900895CCEAD0E0E12CF12C4E
:1008F000C70117D189938FEFE81AF80A8EE0E8163E
:10090000F104B1F7C3E0CABB8DE987BB0EE501BBBB
:100910001BBA88EA88BBD0E4D2BB10E816BD16BC6F
:100920001FBC1EBC12B8C9B9FFDB88E08AB98EE0D3
:1009300083B986B38093BF0018BACABB8DEB87BB5F
:1009400001BB1BBA18BBD2BB939A9298C29882E89B
:1009500088B9C1B962E370E080E090E097DB62DFC4
:100960008091AC008F3F09F48BE381BF80E083DC92
:10097000C0E0D0E0CE01F0DD6B017C011C141D0451
:100980001E041F0444F4C701B60180DBC61AD70A4F
:10099000E80AF90AF3CF2196EDCF991B79E004C05C
:1009A000991F961708F0961B881F7A95C9F78095AE
:1009B0000895AA1BBB1B51E107C0AA1FBB1FA617A6
:1009C000B70710F0A61BB70B881F991F5A95A9F7F8
:1009D00080959095BC01CD010895A1E21A2EAA1B25
:1009E000BB1BFD010DC0AA1FBB1FEE1FFF1FA217DF
:1009F000B307E407F50720F0A21BB30BE40BF50BDC
:100A0000661F771F881F991F1A9469F76095709564
:100A1000809590959B01AC01BD01CF01089568942C
:100A20000013E894A0E0B0E0E7E1F5E01DC0EFEFCF
:100A3000E7F959016A015E23550FEE08FE2C870184
:100A40009B01AC019E23990F660B762FCB013BD007
:100A5000CDB7DEB7EAE024C02F923F924F925F926B
:100A60006F927F928F929F92AF92BF92CF92DF92BE
:100A7000EF92FF920F931F93CF93DF93CDB7DEB723
:100A8000CA1BDB0B0FB6F894DEBF0FBECDBF0994B7
:100A90002A88398848885F846E847D848C849B840E
:100AA000AA84B984C884DF80EE80FD800C811B811C
:100AB000AA81B981CE0FD11D0FB6F894DEBF0FBE4B
:100AC000CDBFED010895DF93CF939F92A0E49A2EBE
:100AD0000024D001E001F00116950795F794E79402
:100AE000D794C794B794A79448F41068A20FB31F83
:100AF000C41FD51FE61FF71F081E191E220F331F24
:100B0000441F551F661F771F881F991F9A9421F74E
:100B10009D01AE01BF01C00111249F90CF91DF91D3
:100B20000895E199FECF1FBA8EBBE09A99278DB345
:060B30000895F894FFCFC8
:100B36008F913D00300220005500010005700838F5
:100B46002030020000C1BB00301F0140037F0000BF
:100B560000000000000000005500050102DB00FF58
:00000001FF
