:10000000ECC006C105C104C1ACC202C101C100C13E
:10001000FFC0FEC0B0C2FCC0FBC0FAC0F9C0F8C04F
:10002000F7C0F6C0F5C0F4C0F3C0726561645F69E3
:100030006E74657276616C3D90207365630A007220
:100040006561645F6572726F725F72657472793D2B
:1000500090207365630A00626174745F353D900A95
:1000600000626174745F343D900A00626174745F71
:10007000333D900A00626174745F323D900A006201
:100080006174745F313D900A006D617267696E5FE3
:100090004C4F573D900A006D617267696E5F484929
:1000A00047483D900A00616C61726D5F4C4F573D4F
:1000B000900A00616C61726D5F484947483D900A43
:1000C000006F66667365743D900A00736C6F7065AF
:1000D0003D900A000A0A0A6F73633D78800A002087
:1000E0002020206661696C656420626C6F636B3AE6
:1000F0002023900A0020424341420A00204341420B
:10010000430A0020414243410A002C20686973746D
:100110005F6964783A2023900A0020207472656E2B
:10012000645F6964783A20239000905D2000626CDF
:100130006B209020205B00626164204649464F207E
:100140006C656E6774680049534F206572726F72F8
:1001500020004649464F5F6C656E203E20313000DE
:10016000676C75636F73653A20900A002062617452
:10017000743D900A0020737461743D80006A3D9064
:10018000002028802900206174206C696E652000A1
:100190002A2A2A2000626C6F636B206E756D62657F
:1001A00072006D697373696E67205278206F7220D8
:1001B000547820496E74657272757074004952519A
:1001C0005F53544154555320213D20300046494649
:1001D0004F206C656E203E20300011241FBECFE5FD
:1001E000D1E0DEBFCDBF10E0A0E6B0E0E4EDFEE080
:1001F00002C005900D92A038B107D9F720E0A0E821
:10020000B0E001C01D92A23BB207E1F7B0D460C6D6
:10021000F7CE90E09F6F880F991F2CE04FE080FF92
:1002200003C0C69A919A02C0C698919895958795F1
:10023000342F3A95F1F7215091F70895CF92DF923C
:10024000EF92FF926B017C011FBC80E1C816D104C4
:10025000E104F10448F489E08EBDC701B60120E055
:1002600039E04DE350E015C081E8C8168EE3D806AA
:10027000E104F10430F050E8C52E5EE3D52EE12C08
:10028000F12C8DE08EBDC701B60122E43FE040E0D5
:1002900050E096D5B901CA0128EE33E040E050E0C5
:1002A0006BD53BBD2ABD1DBC1CBC80E488BF89BF8B
:1002B00085B78F7A85BF85B7806285BF789488952A
:1002C000F89485B78F7D85BF19BEC701B601FF9031
:1002D000EF90DF90CF900895DF92EF92FF920F930F
:1002E0001F93CF93DF93CDB7DEB72A970FB6F8945D
:1002F000DEBF0FBECDBF8C0197FF05C08DE289DF49
:10030000119501951109FE01319640E0DD24D39449
:100310007F012AE030E04F5FC801B9011AD581930F
:100320008111D42EC801B90114D58B014A3099F737
:10033000DA94F701ED0DF11D8081805D6ADFD11047
:10034000F7CF2A960FB6F894DEBF0FBECDBFDF9170
:10035000CF911F910F91FF90EF90DF900895E82FBC
:10036000F0E0EF56FF4F63816F7070E0762F6627E5
:100370008281682B80E090E020919D0030E040E099
:1003800050E01ED5B901CA0128EE33E040E050E04C
:10039000F3D480919E00992787FD9095820F931F3B
:1003A000969587950895FF920F931F93CF93DF93B0
:1003B0009398162FFB012E2F211B2417B8F5DC0173
:1003C0000D91CD0128E030E0A0E850E0BA2FB02335
:1003D00011F0C29A01C0C298929AB5E8BA95F1F7A5
:1003E0000000859B03C0CFEFD0E002C0C0E0D0E0AA
:1003F000B0E0CA23DB235C2B9298C7ECD0E02197B6
:10040000F1F700C00000B595A795215031092115DD
:100410003105E1F66115710509F05083A3EFB1E0F4
:100420001197F1F700C000003196C5CFC298939A9A
:1004300061E070E080E090E0DF91CF911F910F913B
:10044000FF90FCCECF93DF9300D0CDB7DEB789838A
:100450006A8342E060E070E0CE010196A4DF0F9075
:100460000F90DF91CF910895CF93DF9300D01F922B
:10047000CDB7DEB78CE689838DE48A831B8243E0A7
:10048000BE016F5F7F4FCB018EDF8A810F900F908F
:100490000F90DF91CF910895CF93C82F282F30E090
:1004A00084E0359527958A95E1F72A3010F480E3AA
:1004B00001C087E3820FADDECF70CA3010F480E355
:1004C00001C087E38C0FCF91A4CE0F931F93CF93DE
:1004D000DF93162F072FEC01FE018491882399F0FA
:1004E000813829F0803941F0803851F402C0802FE2
:1004F000D3DF812FD1DF05C0812F902FEDDE01C02A
:1005000088DE2196E9CFDF91CF911F910F91089559
:10051000EF92FF920F931F93CF93DF937C018B0198
:10052000EA016FEF7FEF80E991E0CFDF6FEF7FEFC0
:10053000C701CBDF6FEF7FEF86E891E0C6DFC80130
:10054000CBDECF3F8FEFD80721F0BE0181E891E0ED
:10055000BCDF8AE0DF91CF911F910F91FF90EF9068
:1005600058CE1F920F920FB60F9211240F900FBE0C
:100570000F901F9018951F920F920FB60F92112493
:100580008F939F938CB59DB59093AE008093AD00F3
:100590009F918F910F900FBE0F901F901895CF9342
:1005A000DF93A1E8B0E090E021E0290F822FE82F4F
:1005B000F0E0EF57FF4FC92FD0E0CF57DF4F40811A
:1005C000388143170CF4982F8F5F803180F38C9122
:1005D000E92FF0E0EF57FF4F90819D938083922F9A
:1005E0002F3011F7DF91CF9108951F93CF93DF93B1
:1005F00000D0CDB7DEB7182F8CE589838A8342E01F
:10060000BE016F5F7F4FCB01CEDE4A81442371F084
:1006100050E060E772E08DEC91E07ADF8FE889834B
:1006200041E060E070E0CE010196BDDE1DDF882371
:1006300039F0482F50E067E772E08DEB91E068DF1A
:100640001093670048E060E070E080E690E0ABDE89
:100650006EE170E080E090E0F1DD06DF982F907CA5
:10066000903C81F0482F50E063E872E082EA91E02C
:100670004FDF412F50E064E872E085E991E048DF08
:1006800081E001C080E00F900F90DF91CF911F912A
:10069000089580FF08C0C49A68E572E080E090E0A9
:1006A000CDDDC49807C0949A68E572E080E090E0E0
:1006B000C5DD949868EC70E080E090E0BFCD82E406
:1006C00088B987EE93E00197F1F700C000001FBCE6
:1006D00081E08EBD8FE097E29093AE008093AD00F5
:1006E0008AE588B9B898C09A1DBC1CBC789487EE7E
:1006F00093E00197F1F700C00000F89482E988B90F
:10070000C098B89AC0980895BF92CF92DF92EF92A6
:10071000FF920F931F93CF93DF9300D01F92CDB71B
:10072000DEB78C01D090B100ED2CF12C8D2D86958B
:100730008695AFDFC70195958795ABDF8D2DA9DF36
:10074000BEDF0115110531F52091AD003091AE00ED
:1007500053E0369527955A95E1F78091A300281725
:1007600070F48091A400281760F48091A5002817E8
:1007700050F48091A600281740F485E007C081E07E
:1007800005C082E003C083E001C084E048EC68EC6F
:1007900070E0BBD1B8018DE791E097DE6091B100C8
:1007A00070E085E791E091DE6091AD007091AE0060
:1007B0008CE691E08ADE4DE060E070E088E690E053
:1007C000F2DD6AE070E080E090E038DD10928000B9
:1007D00003E010E04CE5C42EB02E802F06DFD82EAB
:1007E0008111CCC0C982CA8242E0BE016F5F7F4FD7
:1007F000CB01D9DD2A812F772B3038F0422F50E002
:1008000060E072E082E591E01DC041E0420F61E9E5
:1008100070E085E790E02B83C6DD409192002B814C
:10082000223011F0442331F050E06BE072E087E4B5
:1008300091E008C02930E9F0422F50E061E172E018
:1008400087E391E065DE44E668EC70E083E05DD12B
:100850008B2D63E05ED2913009F07BC0E091800087
:1008600081E08E0F80938000F0E0EF57FF4F108201
:1008700070C0B8018EE291E028DEB80123E0660F77
:10088000771F2A95E1F78AE291E01FDE3BE9E32E2C
:1008900030E0F32EF70182917F01FEDDF3E9EF16E0
:1008A000F0E0FF06B9F723E0B21211C0F090970014
:1008B000F092AF00609196006093B00070E08AE122
:1008C00091E003DE6F2D70E08AE091E04FC08B2D48
:1008D00063E01FD29130E9F0923041F56FEF7FEF86
:1008E0008CEF90E0F2DDF0908000EE24E394EF0CCA
:1008F000E092800086E033DDAF2DB0E0AF57BF4F10
:100900008C93F394F394F092800080E028DDEE2D38
:100910001BC06FEF7FEF83E091E0D7DDF0908000A8
:1009200081E08F0D8093800082E00CC06FEF7FEF3D
:1009300085EF90E0CADDF090800081E08F0D80931C
:10094000800084E00CDDEF2DF0E0EF57FF4F808357
:100950000EC0E091800081E08E0F80938000F0E077
:10096000EF57FF4F1082B8018FED90E0AEDD7CDDD8
:100970000F5F1F4F0031110509F02ECF60E180E0BD
:1009800090E060DDDD2041F083E08093B10044E63B
:1009900064E670E0BAD070C002DEE4E8F0E080E027
:1009A00090E02191820F911D27FD9A9520E0EE386D
:1009B000F207B9F76AE070E0B8D18B01660F771FD4
:1009C00080E691E082DD8091AB009091AC000097D1
:1009D000D1F41093AC000093AB0087E08093B1009A
:1009E0008091A100800F9091A200091B9091A0001E
:1009F000091710F40093A00090919F009817E0F55C
:100A000080939F0039C008171907B0F08091A100AA
:100A100090919F009E3728F0800F891710F48093E3
:100A20009F0086E08093B10080919F0090E0801746
:100A3000910710F5949A16C08091A2009091A000A1
:100A4000913230F4E02FE81B9E1710F4E093A000E1
:100A500084E08093B1008091A00090E0081719070E
:100A600058F4C49A48EC64EF71E08CEA4ED060ED23
:100A700077E080E090E00CC06091A90070E080E039
:100A800090E020E43FE140E050E098D1B901CA0194
:100A90000F900F900F90DF91CF911F910F91FF90CA
:100AA000EF90DF90CF90BF900895CF93DF9300D069
:100AB0001F92CDB7DEB783E88B8341E060E070E042
:100AC000CE01039670DC80E88A8341E060E070E04C
:100AD000CE01029668DC8FE8898341E060E070E037
:100AE000CE01019660DC60E180E090E0ABDC60E08C
:100AF00081E090E0A7DC60E088E190E0A3DC0F906B
:100B00000F900F90DF91CF9108958F929F92AF92A7
:100B1000BF92CF92DF92EF92FF920F931F93CF93EA
:100B2000DF9300E010E0C82FD0E06B01E12CF12C46
:100B3000842E912CA12CB12C0C171D075CF49698D7
:100B4000C701B6017BDB969AC501B40177DB0F5F65
:100B50001F4FF2CFDF91CF911F910F91FF90EF9038
:100B6000DF90CF90BF90AF909F908F900895CCE989
:100B7000D0E0E12CF12CC701A3D189938FEFE81AC3
:100B8000F80A8EE0E816F104B1F783E08ABB9DED28
:100B900097BB3EE531BB1BBA98EA98BB90E492BB89
:100BA00020E826BD16BC1FBC1EBCC69A919A46B34F
:100BB0004093AA0018BA8ABB4DEF47BB31BB1BBAA2
:100BC00028BB92BB939A9298C29892E898B981B93F
:100BD00062E370E080E090E031DB67DF80919C00B1
:100BE0008F3F09F486E281BF61B770E084ED90E049
:100BF0006CDC60919D0070E08BEC90E066DC6091B5
:100C00009E00772767FD709581EC90E05EDC609137
:100C10009F0070E0660F771F83EB90E056DC6091D9
:100C2000A00070E0660F771F86EA90E04EDC6091CE
:100C3000A10070E0660F771F87E990E046DC6091C5
:100C4000A20070E0660F771F89E890E03EDC6091BB
:100C5000A30070E0C3E0660F771FCA95E1F78FE746
:100C600090E033DC6091A40070E0D3E0660F771F62
:100C7000DA95E1F785E790E028DC6091A50070E067
:100C800083E0660F771F8A95E1F78BE690E01DDC25
:100C90006091A60070E093E0660F771F9A95E1F7E8
:100CA00081E690E012DC6091A70070E023E0660F1F
:100CB000771F2A95E1F787E590E007DC6091A800AF
:100CC00070E033E0660F771F3A95E1F78FE390E02D
:100CD000FCDB6091A90070E043E0660F771F4A9546
:100CE000E1F78AE290E0F1DBC0E0D0E0CE010CDD7C
:100CF0006B017C011C141D041E041F0444F4C70175
:100D0000B6019CDAC61AD70AE80AF90AF3CF219687
:100D1000EDCF991B79E004C0991F961708F0961B38
:100D2000881F7A95C9F780950895AA1BBB1B51E1CE
:100D300007C0AA1FBB1FA617B70710F0A61BB70B4B
:100D4000881F991F5A95A9F780959095BC01CD01F0
:100D5000089597FB072E16F4009406D077FD08D06F
:100D6000E4DF07FC05D03EF4909581959F4F0895F0
:100D7000709561957F4F0895A1E21A2EAA1BBB1BA7
:100D8000FD010DC0AA1FBB1FEE1FFF1FA217B30757
:100D9000E407F50720F0A21BB30BE40BF50B661F6D
:100DA000771F881F991F1A9469F760957095809531
:100DB00090959B01AC01BD01CF010895689400138B
:100DC000E894A0E0B0E0E6EEF6E01DC0EFEFE7F952
:100DD00059016A015E23550FEE08FE2C87019B0125
:100DE000AC019E23990F660B762FCB013BD0CDB77C
:100DF000DEB7EAE024C02F923F924F925F926F924B
:100E00007F928F929F92AF92BF92CF92DF92EF929A
:100E1000FF920F931F93CF93DF93CDB7DEB7CA1B1B
:100E2000DB0B0FB6F894DEBF0FBECDBF09942A8846
:100E3000398848885F846E847D848C849B84AA84EE
:100E4000B984C884DF80EE80FD800C811B81AA817B
:100E5000B981CE0FD11D0FB6F894DEBF0FBECDBF46
:100E6000ED010895DF93CF939F92A0E49A2E002482
:100E7000D001E001F00116950795F794E794D79417
:100E8000C794B794A79448F41068A20FB31FC41F67
:100E9000D51FE61FF71F081E191E220F331F441F00
:100EA000551F661F771F881F991F9A9421F79D0170
:100EB000AE01BF01C00111249F90CF91DF91089531
:100EC000E199FECF1FBA8EBBE09A99278DB30895A2
:040ED000F894FFCFC4
:100ED4008F913D00300220002030020000C1BB0091
:100EE400301F0140037F00000000000000000000EC
:00000001FF
