:1000000014C02EC02DC02CC032C12AC029C028C0A7
:1000100027C026C036C124C023C022C021C020C0B2
:100020001FC01EC01DC01CC01BC011241FBECFE5B9
:10003000D1E0DEBFCDBF10E0A0E6B0E0E6ECF9E035
:1000400002C005900D92A038B107D9F720E0A0E8D2
:10005000B0E001C01D92A53BB207E1F781D3B1C466
:10006000CFCFCF92DF92EF92FF926B017C011FBC4A
:1000700080E1C816D104E104F10448F489E08EBDA2
:10008000C701B60120E030E448E350E015C081E844
:10009000C8168EE3D806E104F10430F080E8C82EDB
:1000A0008EE3D82EE12CF12C8DE08EBDC701B60178
:1000B00020E13EE040E050E0EAD3B901CA0128EE79
:1000C00033E040E050E0BFD33BBD2ABD1DBC1CBCAB
:1000D00080E488BF89BF85B78F7A85BF85B7806286
:1000E00085BF78948895F89485B78F7D85BF19BEB4
:1000F000C701B601FF90EF90DF90CF900895E82FF1
:10010000F0E0E058FF4F63816F7070E0762F662754
:100110008281682B80E090E020918C0030E040E00C
:1001200050E0B5D3B901CA0128EE33E040E050E019
:100130008AD380918D00992787FD9095820F931F18
:10014000E0919B0021E02E0F20939B00F0E0E4560D
:10015000FF4F9695879580830895FF920F931F9385
:10016000CF93DF939398162FFB012E2F211B24177B
:1001700098F5DC010D91CD0128E030E0A0E850E0D9
:10018000BA2FB02311F0C29A01C0C298929ABBE76D
:10019000BA95F1F7859B03C0CFEFD0E002C0C0E075
:1001A000D0E0B0E0CA23DB235C2B9298C6EFCA955F
:1001B000F1F7B595A795215031092115310501F7C2
:1001C0006115710509F05083ACECB1E01197F1F7BE
:1001D00000C000003196C9CFC298939A61E070E0E8
:1001E00080E090E0DF91CF911F910F91FF9039CF88
:1001F000CF93DF9300D0CDB7DEB789836A8342E027
:1002000060E070E0CE010196A8DF0F900F90DF91C3
:10021000CF910895CF93DF9300D01F92CDB7DEB773
:100220008CE689838DE48A831B8243E0BE016F5F85
:100230007F4FCB0192DF8A810F900F900F90DF915B
:10024000CF910895682F2091990030919A00223023
:10025000310560F08091B3009091B4009C012F5F54
:100260003F4F3093B4002093B30099C308951F9279
:100270000F920FB60F9211240F900FBE0F901F9088
:1002800018951F920F920FB60F9211248F939F9380
:100290008CB59DB59093AF008093AE009F918F91E8
:1002A0000F900FBE0F901F901895CF93DF93ACE97E
:1002B000B0E080E021E0280F922FE92FF0E0E45633
:1002C000FF4FC82FD0E0C456DF4F4081388143171D
:1002D00008F4892F9F5F9F3080F39C91E82FF0E016
:1002E000E456FF4F80818D9390832E3011F0822F42
:1002F000E1CFDF91CF91089580FF08C0C49A68E5EF
:1003000072E080E090E0ADDEC49807C0949A68E5A2
:1003100072E080E090E0A5DE949868EC70E080E008
:1003200090E09FCE82E488B989E993E00197F1F7E4
:1003300000C01FBC81E08EBD8FE097E29093AF00BC
:100340008093AE008AE588B9B898C09A1DBC1CBCE1
:10035000789489E993E00197F1F700C0F89482E975
:1003600088B9C098B89AC0980895CF92DF92EF925A
:10037000FF920F931F93CF93DF9300D01F92CDB7BF
:10038000DEB7F090B2000F2D10E08F2D8695869588
:10039000B3DFC80195958795AFDF8F2DADDFC2DF45
:1003A0008091990090919A00892B31F58091AE004F
:1003B0009091AF0023E0969587952A95E1F790916B
:1003C0009200891770F490919300891760F49091CE
:1003D0009400891750F490919500891740F485E0B6
:1003E00007C081E005C082E003C083E001C084E073
:1003F00048EC68EC70E07ED14DE060E070E088E6AB
:1004000090E0ABDE6AE070E080E090E02ADE1092DF
:100410009B0080E290E09093B4008093B30013E0DF
:10042000F12E0CE5E02E8FE8D82E93E0C92EE9825C
:10043000EA8242E0BE016F5F7F4FCB018EDE8A8190
:10044000882339F0DB8241E060E070E0CE01039662
:1004500084DEE0DEF092670048E060E070E080E675
:1004600090E07BDE6EE170E080E090E0FADDD2DECD
:10047000807C803C09F0DEC0E982EA8242E0BE0175
:100480006F5F7F4FCB0169DE1A811F771B30D8F574
:1004900041E0410F60E870E085E790E05EDE1930F2
:1004A00091F58091810081112EC023E0F21209C0E4
:1004B000809185008093B000809184008093B1008A
:1004C00041C08091B000BEDE8091B100BBDE8F2DB7
:1004D000B9DE0AE810E0F80182918F01B3DEF0E0A6
:1004E00002381F07C1F78F2D6C2D8DD1913031F05F
:1004F000923031F486E003DE80E003C082E001C088
:1005000084E0FDDD1FC044E668EC70E083E0F2D0DB
:100510008F2D63E078D1913051F4E0919B0081E020
:100520008E0F80939B00F0E0E456FF4F1082E09125
:100530009B0081E08E0F80939B00F0E0E456FF4F1C
:10054000108278C067DEF394FFE0FF1270CF60E1A5
:1005500080E090E04DDEA9DEEFE9F0E080E090E0A1
:100560002191820F911D20E0E83AF207C9F769E076
:1005700070E055D18B018091990064DE802F62DE9E
:100580008091AC005FDE80918F005CDE80918E00F8
:1005900059DE8091AC009091AD000097D9F4109392
:1005A000AD000093AC0087E08093B2008091900092
:1005B000800F90919100091B90918F00091710F402
:1005C00000938F0090918E00981708F04BC0809395
:1005D0008E0048C008171907B0F0809190009091E4
:1005E0008E009E3728F0800F891710F480938E00BC
:1005F00086E08093B20080918E0090E08017910792
:1006000088F5949A25C08091910090918F0098323E
:1006100030F4E02FE81B9E1710F4E0938F0084E085
:100620008093B20080918F0090E008171907D0F4F2
:10063000C49A0EC060E180E090E0DADD83E0809350
:10064000B20044E664E670E055D0609197000CC0BB
:1006500048EC64EF71E08CEA4DD060ED77E080E02B
:1006600090E00CC06091980070E080E090E020E4A1
:100670003FE140E050E009D1B901CA010F900F906D
:100680000F90DF91CF911F910F91FF90EF90DF902E
:10069000CF900895CF93DF9300D01F92CDB7DEB7F0
:1006A00083E88B8341E060E070E0CE01039655DD86
:1006B00080E88A8341E060E070E0CE0102964DDD83
:1006C0008FE8898341E060E070E0CE01019645DD6E
:1006D00060E180E090E08CDD60E081E090E088DD2A
:1006E00060E088E190E084DD0F900F900F90DF9143
:1006F000CF9108958F929F92AF92BF92CF92DF9247
:10070000EF92FF920F931F93CF93DF939091AB00E3
:1007100095FF19C000E010E0C82FD0E06B01E12C7C
:10072000F12C842E912CA12CB12C0C171D075CF4FC
:100730009698C701B60195DC969AC501B40191DC83
:100740000F5F1F4FF2CFDF91CF911F910F91FF905D
:10075000EF90DF90CF90BF90AF909F908F900895D3
:10076000CBE8D0E0E12CF12CC70111D189938FEFB8
:10077000E81AF80A8EE0E816F104B1F783E08ABBC4
:100780009DED97BB3EE531BB1BBA98EA98BB90E460
:1007900092BB20E826BD16BC1FBC1EBC46B34093CE
:1007A000AB0018BA8ABB4DEF47BB31BB1BBA28BBA5
:1007B00092BB939A9298C29892E898B981B962E3F1
:1007C00070E080E090E04DDC65DF10929A001092BE
:1007D0009900CBDD6B017C011C141D041E041F0459
:1007E00044F4C701B6013DDCC61AD70AE80AF90A83
:1007F000F3CF8091990090919A00019690939A007E
:1008000080939900E6CF991B79E004C0991F961751
:1008100008F0961B881F7A95C9F780950895AA1B42
:10082000BB1B51E107C0AA1FBB1FA617B70710F0DB
:10083000A61BB70B881F991F5A95A9F7809590950D
:10084000BC01CD010895A1E21A2EAA1BBB1BFD011C
:100850000DC0AA1FBB1FEE1FFF1FA217B307E4079F
:10086000F50720F0A21BB30BE40BF50B661F771FF7
:10087000881F991F1A9469F76095709580959095D7
:100880009B01AC01BD01CF01089568940013E89469
:10089000A0E0B0E0EDE4F4E01DC0EFEFE7F95901AE
:1008A0006A015E23550FEE08FE2C87019B01AC0107
:1008B0009E23990F660B762FCB013BD0CDB7DEB7C9
:1008C000EAE024C02F923F924F925F926F927F9204
:1008D0008F929F92AF92BF92CF92DF92EF92FF9250
:1008E0000F931F93CF93DF93CDB7DEB7CA1BDB0BFC
:1008F0000FB6F894DEBF0FBECDBF09942A883988A1
:1009000048885F846E847D848C849B84AA84B984A7
:10091000C884DF80EE80FD800C811B81AA81B981B3
:10092000CE0FD11D0FB6F894DEBF0FBECDBFED01C7
:100930000895DF93CF939F92A0E49A2E0024D001D4
:10094000E001F00116950795F794E794D794C794C2
:10095000B794A79448F41068A20FB31FC41FD51F03
:10096000E61FF71F081E191E220F331F441F551FB5
:10097000661F771F881F991F9A9421F79D01AE016A
:10098000BF01C00111249F90CF91DF910895E1999B
:10099000FECF1FBA8EBBE09A99278DB30895262FFC
:1009A000E199FECF1FBA8EBBE09A81500DB20216BC
:1009B00039F01CBA2DBB0FB6F894E29AE19A0FBE3B
:0609C0000895F894FFCF3A
:1009C6008F913D00300220002030020000C1BB00A4
:1009D600301F0140037F00000000000000000000FF
:00000001FF
