:1000000014C02EC02DC02CC021C12AC029C028C0B8
:1000100027C026C025C124C023C022C021C020C0C3
:100020001FC01EC01DC01CC01BC011241FBECFE5B9
:10003000D1E0DEBFCDBF10E0A0E6B0E0E0E1F9E046
:1000400002C005900D92A038B107D9F720E0A0E8D2
:10005000B0E001C01D92A13BB207E1F741D356C405
:10006000CFCFCF92DF92EF92FF926B017C011FBC4A
:1000700080E1C816D104E104F10448F489E08EBDA2
:10008000C701B60120E039E04DE350E015C081E83A
:10009000C8168EE3D806E104F10430F080E8C82EDB
:1000A0008EE3D82EE12CF12C8DE08EBDC701B60178
:1000B00022E43FE040E050E0A1D3B901CA0128EEBC
:1000C00033E040E050E076D33BBD2ABD1DBC1CBCF4
:1000D00080E488BF89BF85B78F7A85BF85B7806286
:1000E00085BF78948895F89485B78F7D85BF19BEB4
:1000F000C701B601FF90EF90DF90CF900895E82FF1
:10010000F0E0E058FF4F63816F7070E0762F662754
:100110008281682B80E090E020918C0030E040E00C
:1001200050E06CD3B901CA0128EE33E040E050E062
:1001300041D380918D00992787FD9095820F931F61
:10014000E091990021E02E0F20939900F0E0E6560F
:10015000FF4F9695879580830895FF920F931F9385
:10016000CF93DF939398162FFB012E2F211B24177B
:10017000B8F5DC010D91CD0128E030E0A0E850E0B9
:10018000BA2FB02311F0C29A01C0C298929AB5E872
:10019000BA95F1F70000859B03C0CFEFD0E002C015
:1001A000C0E0D0E0B0E0CA23DB235C2B9298C7EC20
:1001B000D0E02197F1F700C00000B595A795215038
:1001C000310921153105E1F66115710509F05083FA
:1001D000A3EFB1E01197F1F700C000003196C5CF51
:1001E000C298939A61E070E080E090E0DF91CF9157
:1001F0001F910F91FF9035CFCF93DF9300D0CDB7F4
:10020000DEB789836A8342E060E070E0CE01019648
:10021000A4DF0F900F90DF91CF910895CF93DF93DC
:1002200000D01F92CDB7DEB78CE689838DE48A8338
:100230001B8243E0BE016F5F7F4FCB018EDF8A815F
:100240000F900F900F90DF91CF9108951F920F9212
:100250000FB60F9211240F900FBE0F901F9018959C
:100260001F920F920FB60F9211248F939F938CB50C
:100270009DB59093AD008093AC009F918F910F90AE
:100280000FBE0F901F901895CF93DF93AAE9B0E0AF
:1002900080E021E0280F922FE92FF0E0E656FF4F93
:1002A000C82FD0E0C656DF4F40813881431708F48D
:1002B000892F9F5F9F3080F39C91E82FF0E0E656F6
:1002C000FF4F80818D9390832E3011F0822FE1CFEC
:1002D000DF91CF91089580FF08C0C49A68E572E06D
:1002E00080E090E0BEDEC49807C0949A68E572E0B2
:1002F00080E090E0B6DE949868EC70E080E090E0FA
:10030000B0CE82E488B987EE93E00197F1F700C0A0
:1003100000001FBC81E08EBD8FE097E29093AD009E
:100320008093AC008AE588B9B898C09A1DBC1CBC03
:10033000789487EE93E00197F1F700C00000F894FD
:1003400082E988B9C098B89AC0980895DF92EF9270
:10035000FF920F931F93CF93DF9300D01F92CDB7DF
:10036000DEB78C01D090B000ED2CF12C8D2D869550
:100370008695B1DFC70195958795ADDF8D2DABDFF4
:10038000C0DF012B31F58091AC009091AD0023E0EE
:10039000969587952A95E1F790919200891770F4C8
:1003A00090919300891760F490919400891750F40C
:1003B00090919500891740F485E007C081E005C061
:1003C00082E003C083E001C084E048EC68EC70E0A8
:1003D00055D14DE060E070E088E690E0BEDE6AE076
:1003E00070E080E090E03DDE1092990013E00CE5B3
:1003F000F02E8FE8E82E93E0D92EF982FA8242E0BF
:10040000BE016F5F7F4FCB01A8DE8A81882339F060
:10041000EB8241E060E070E0CE0103969EDEFEDEFE
:100420001093670048E060E070E080E690E095DEC1
:100430006EE170E080E090E014DEF0DE807C803CD5
:1004400009F0C9C0F982FA8242E0BE016F5F7F4FB6
:10045000CB0183DE0A810F770B3040F541E0400F7E
:1004600060E870E085E790E078DE0930F9F480918B
:10047000810081111BC0133049F480918500809365
:10048000AE00809184008093AF002FC0812F6D2D2E
:1004900071D1913031F0923031F486E030DE80E07D
:1004A00003C082E001C084E02ADE1FC044E668EC9D
:1004B00070E083E0E3D0812F63E05CD1913051F4B0
:1004C000E091990081E08E0F80939900F0E0E6566C
:1004D000FF4F1082E091990081E08E0F8093990088
:1004E000F0E0E656FF4F108276C098DE1F5F1F30A7
:1004F00009F083CF10E060E180E090E07DDE112321
:1005000051F083E08093B00044E664E670E0B6D03A
:10051000609197006EC0B8DEEDE9F0E080E090E019
:100520002191820F911D20E0E63AF207C9F76CE0B5
:1005300070E02CD18091AA009091AB000097D9F483
:100540007093AB006093AA0087E08093B000809125
:100550009000860F90919100691B90918F00691710
:1005600010F460938F0090918E00981708F03FC0B0
:1005700080938E003CC068177907B0F0809190009E
:1005800090918E009E3728F0860F891710F4809383
:100590008E0086E08093B00080918E0090E08617F8
:1005A000970728F5949A19C08091910090918F0037
:1005B000913230F4262F281B921710F420938F00CD
:1005C00084E08093B00080918F0090E068177907F5
:1005D00070F4C49A02C011E08ECF48EC64EF71E071
:1005E0008CEA4CD060ED77E080E090E00CC0609148
:1005F000980070E080E090E020E43FE140E050E0CF
:10060000FBD0B901CA010F900F900F90DF91CF91ED
:100610001F910F91FF90EF90DF900895CF93DF939C
:1006200000D01F92CDB7DEB783E88B8341E060E056
:1006300070E0CE01039691DD80E88A8341E060E0BE
:1006400070E0CE01029689DD8FE8898341E060E0A9
:1006500070E0CE01019681DD60E180E090E0CCDDCC
:1006600060E081E090E0C8DD60E088E190E0C4DD1A
:100670000F900F900F90DF91CF9108958F929F92DE
:10068000AF92BF92CF92DF92EF92FF920F931F93A0
:10069000CF93DF9300E010E0C82FD0E06B01E12C96
:1006A000F12C842E912CA12CB12C0C171D075CF47D
:1006B0009698C701B601D5DC969AC501B401D1DC84
:1006C0000F5F1F4FF2CFDF91CF911F910F91FF90DE
:1006D000EF90DF90CF90BF90AF909F908F90089554
:1006E000CBE8D0E0E12CF12CC70108D189938FEF42
:1006F000E81AF80A8EE0E816F104B1F783E08ABB45
:100700009DED97BB3EE531BB1BBA98EA98BB90E4E0
:1007100092BB20E826BD16BC1FBC1EBC46B340934E
:10072000A90018BA8ABB4DEF47BB31BB1BBA28BB27
:1007300092BB939A9298C29892E898B981B962E371
:1007400070E080E090E08DDC69DFC0E0D0E0CE01B9
:10075000FDDD6B017C011C141D041E041F0444F408
:10076000C701B6017EDCC61AD70AE80AF90AF3CF38
:100770002196EDCF991B79E004C0991F961708F0D8
:10078000961B881F7A95C9F780950895AA1BBB1BF5
:1007900051E107C0AA1FBB1FA617B70710F0A61B81
:1007A000B70B881F991F5A95A9F780959095BC01A2
:1007B000CD010895A1E21A2EAA1BBB1BFD010DC09D
:1007C000AA1FBB1FEE1FFF1FA217B307E407F50701
:1007D00020F0A21BB30BE40BF50B661F771F881FDD
:1007E000991F1A9469F760957095809590959B0173
:1007F000AC01BD01CF01089568940013E894A0E016
:10080000B0E0E4E0F4E01DC0EFEFE7F959016A0160
:100810005E23550FEE08FE2C87019B01AC019E2341
:10082000990F660B762FCB013BD0CDB7DEB7EAE050
:1008300024C02F923F924F925F926F927F928F923D
:100840009F92AF92BF92CF92DF92EF92FF920F935F
:100850001F93CF93DF93CDB7DEB7CA1BDB0B0FB669
:10086000F894DEBF0FBECDBF09942A883988488826
:100870005F846E847D848C849B84AA84B984C884BC
:10088000DF80EE80FD800C811B81AA81B981CE0FB3
:10089000D11D0FB6F894DEBF0FBECDBFED01089598
:1008A000DF93CF939F92A0E49A2E0024D001E00121
:1008B000F00116950795F794E794D794C794B794E9
:1008C000A79448F41068A20FB31FC41FD51FE61FDA
:1008D000F71F081E191E220F331F441F551F661FC6
:1008E000771F881F991F9A9421F79D01AE01BF01C0
:1008F000C00111249F90CF91DF910895E199FECF1F
:100900001FBA8EBBE09A99278DB30895F894FFCF54
:100910008F913D00300220002030020000C1BB005A
:10092000301F0140037F00000000000000000000B5
:00000001FF
