:1000000014C02EC02DC02CC0C3C22AC029C07BC2C0
:1000100027C026C0C7C224C023C022C021C020C020
:100020001FC01EC01DC01CC01BC011241FBECFE5B9
:10003000D1E0DEBFCDBF10E0A0E6B0E0ECE6FFE02F
:1000400002C005900D92A039B107D9F720E0A0E9D0
:10005000B0E001C01D92A33EB207E1F7FCD584C712
:10006000CFCF9091DE00982728E047E0392F330F5B
:1000700097FF03C0932F942701C0932F2150B1F70E
:100080009093DE005D9BFECF8CB90895992787FD84
:1000900090959F6F880F991F2CE041E180FF03C06E
:1000A000C69A919A03C0C69891989198959587950C
:1000B000342F3A95F1F7215089F70895CF92DF92C6
:1000C000EF92FF926B017C011FBC80E1C816D10446
:1000D000E104F10448F489E08EBDC701B60120E0D7
:1000E00030E448E350E015C081E8C8168EE3D80636
:1000F000E104F10430F050E8C52E5EE3D52EE12C8A
:10010000F12C8DE08EBDC701B60120E13EE040E05C
:1001100050E094D6B901CA0128EE33E040E050E047
:1001200069D63BBD2ABD1DBC1CBC80E488BF89BF0D
:1001300085B78F7A85BF85B7806285BF78948895AB
:10014000F89485B78F7D85BF19BEC701B601FF90B2
:10015000EF90DF90CF90089564E670E080E090E04B
:10016000ADDF1AB8899A9198C39A60E177E280E08E
:1001700090E0A4CFCF93C82F85E573DF1092DE0007
:1001800080E06FDF8C2F6DDF87E06BDF81E069DF60
:100190008091DE00CF9165CF8FEF63DF8091BE004D
:1001A00060DF8091BD005DDF8091BC005ADF80E0A0
:1001B00058DF80E056DF8FEF54DF8FEF52DF8FEF95
:1001C00050DF8FEF4EDF8FEF4CDF80E04ADF809112
:1001D000DE0047CFCF93C82F8BE0CCDF1092DE003C
:1001E00082ED3FDF80E23DDF8C2F3BDFC091C1001D
:1001F0008091C20036DF8C2F34DF8091C50031DF63
:10020000CBDFCF91A9CFCF93DF9300D0CDB7DEB7AF
:100210006A8379833BDF7981872F38DF6A81862F74
:100220000F900F90DF91CF9131CFCF93DF9300D01C
:10023000CDB7DEB74A835983E6DF5981852F26DFA4
:100240004A81842F0F900F90DF91CF911FCF0F9392
:100250001F93CF93DF93E82FF0E0E057FF4FC38168
:10026000CF70D0E0DC2FCC278281C82BBE0180E08C
:1002700090E020919C0030E040E050E0DFD5B901F3
:10028000CA0128EE33E040E050E0B4D500919D0073
:10029000112707FD1095020F131FA801BE0182E070
:1002A000C4DFE091AB0081E08E0F8093AB00F0E003
:1002B000E455FF4F169507950083DF91CF911F916D
:1002C0000F9108959091A10020919F00920F89179E
:1002D00018F01092E0000895981B9093E0000895A4
:1002E00090919E002091A000921B981718F01092F8
:1002F000DF000895891B8093DF000895FF920F931C
:100300001F93CF93DF939398162FFB012E2F211B62
:10031000241798F5DC010D91CD0128E030E0A0E82C
:1003200050E0BA2FB02311F0C29A01C0C298929A3D
:10033000BBE7BA95F1F7859B03C0CFEFD0E002C0D1
:10034000C0E0D0E0B0E0CA23DB235C2B9298C6EF7C
:10035000CA95F1F7B595A7952150310921153105B9
:1003600001F76115710509F05083ACECB1E011970C
:10037000F1F700C000003196C9CFC298939A61E0AE
:1003800070E080E090E0DF91CF911F910F91FF909E
:1003900095CECF93DF9300D0CDB7DEB789836A8344
:1003A00042E060E070E0CE010196A8DF0F900F9070
:1003B000DF91CF910895CF93DF9300D01F92CDB7F7
:1003C000DEB78CE689838DE48A831B8243E0BE011D
:1003D0006F5F7F4FCB0192DF8A810F900F900F905C
:1003E000DF91CF9108950F931F93CF93DF931F92C7
:1003F000CDB7DEB7682F1091E1000091E200812FA8
:10040000902F69839BD56981861729F180EE810F32
:10041000E82FF0E093E0F595E7959A95E1F7EF5234
:10042000FF4F877020E830E002C0359527958A9508
:10043000E2F78081822B8083E091C600EA3040F4AD
:1004400081E08E0F8093C600F0E0E953FF4F608398
:10045000812F902F7BD58091E1009091E200019651
:100460009093E2008093E1000F90DF91CF911F9174
:100470000F9108950F931F93CF93DF93C39864E672
:1004800070E080E090E01ADE88E08AB968E572E00A
:1004900080E090E013DE8091A9009091AA000A9775
:1004A00068F58091BB00811129C088E98AB9C49898
:1004B000949A789416E900E12FEF8FE191E02150B2
:1004C00080409040E1F700C000001092BF00C8E6F5
:1004D000D0E08991C6DD20E0C037D207D1F7809106
:1004E000BB00882331F0F894C498949888E08AB9C6
:1004F00005C006BB00BB1150F9F6F5CFDF91CF91D7
:100500001F910F9108951F920F920FB60F92112411
:100510002F938F939F93EF93FF939CB18091BB0098
:1005200081112CC08091BF00883084F4E82FFF2710
:10053000E7FDF095E059FF4F2081921719F01092D6
:10054000BF001CC08F5F8093BF0018C021E0280F40
:100550002093BF00893039F08A3041F0883071F43F
:100560009093BE000BC09093BD0008C09093BC0058
:1005700081E08093BB008AB18F768AB9FF91EF91B9
:100580009F918F912F910F900FBE0F901F901895F4
:100590001F920F920FB60F9211240F900FBE0F9063
:1005A0001F9018951F920F920FB60F9211248F93E0
:1005B0009F938CB59DB59093C2008093C1009F918D
:1005C0008F910F900FBE0F901F901895CF93DF93D0
:1005D000ACEAB0E080E021E0280F922FE92FF0E0B4
:1005E000E455FF4FC82FD0E0C455DF4F408138811C
:1005F000431708F4892F9F5F9F3080F39C91E82F69
:10060000F0E0E455FF4F80818D9390832E3011F000
:10061000822FE1CFDF91CF91089580FF08C0C49A67
:1006200068E572E080E090E049DDC49807C0949AE4
:1006300068E572E080E090E041DD949868EC70E05D
:1006400080E090E03BCD82E488B989E993E00197AE
:10065000F1F700C01FBC81E08EBD8FE097E2909360
:10066000C2008093C1008AE588B9B898C09A1DBCC1
:100670001CBC789489E993E00197F1F700C0F894E5
:1006800082E988B9C098B89AC09808958F929F92CD
:10069000AF92BF92CF92DF92EF92FF920F931F9390
:1006A000CF93DF9300D000D0CDB7DEB7F090C50078
:1006B0000F2D10E08F2D86958695AFDFC80195959B
:1006C0008795ABDF8F2DA9DFBEDF8091A9009091C8
:1006D000AA00892B31F58091C1009091C20013E0EE
:1006E000969587951A95E1F79091A200891770F475
:1006F0009091A300891760F49091A400891750F499
:100700009091A500891740F485E007C081E005C0FD
:1007100082E003C083E001C084E048EC68EC70E054
:1007200066D24091C50050E06091A9007091AA0086
:1007300087E17BDD4091BE0050E06091C100709187
:10074000C20088E172DD4091BC0050E06091BD00C4
:1007500070E089E16ADD6091BB0070E08AE153DD01
:1007600005D21092AB0080E290E09093E20080937B
:10077000E1008DE0E1EDF0E0DF011D928A95E9F7FF
:100780001092C60003E010E0FCE5AF2EAFE89A2E11
:10079000B3E08B2EB02EA982AA8242E0BE016F5F29
:1007A0007F4FCB01ABDD6A8170E06115710559F0B7
:1007B0004DEE51E08DE039DD9B8241E060E070E07C
:1007C000CE0103969BDDF7DD682F70E061157105A2
:1007D00021F043EF51E08EE028DDB092670048E061
:1007E00060E070E080E690E089DD6EE170E080E03E
:1007F00090E064DCE0DD982F907C903C41F0682F25
:1008000070E08FE000DD6B2D70E080E133C0A982E5
:10081000AA8242E0BE016F5F7F4FCB016FDD2A816C
:100820002F772B30D0F1622F70E04CE851E083E05D
:10083000FCDC44E668EC70E083E0D9D18B2D63E00A
:10084000B9D2913051F4E091AB0081E08E0F8093EA
:10085000AB00F0E0E455FF4F1082E091AB0081E087
:100860008E0F8093AB00F0E0E455FF4F10826B2DAC
:1008700070E08CE0C8DC60E180E090E08ADD83E03D
:100880008093C500F7DD80E0A5DC44E664E670E017
:1008900083E0ADD16091A7004EC141E0420F60E915
:1008A00070E085E890E02C8329DD609191002C8137
:1008B000223029F470E047E951E084E0B9CF6111BA
:1008C000F9CF293031F0622F70E04DE951E085E039
:1008D000AFCFA80163E0440F551F6A95E1F7B80157
:1008E00086E0A3DC72E9E72E70E0F72EEAE9CE2E6F
:1008F000E0E0DE2EF70181917F0175DDD6016E917A
:100900006D0170E087E07FDCBAE9EB16B0E0FB0632
:1009100089F7E3E0BE120DC0409195004093C300FB
:10092000609194006093C40050E070E088E07DDC4A
:1009300015C08B2D682D3ED2913031F0923041F0B0
:1009400089E0A4DB84E009C08AE0A0DB82E005C086
:100950008BE09CDB86E07BDC80E079DC2CDD0F5FCC
:100960001F4F0F30110509F015CF60E180E090E0D6
:1009700010DDC7982BDEEFEAF0E080E090E02191F7
:10098000820F911D20E0E83BF207C9F769E070E0B3
:100990001DD28B018091A90026DD802F24DD80915E
:1009A000C00021DD80919F001EDD80919E001BDD37
:1009B0008091C40018DD8091C30015DD8091C400D2
:1009C0008F7090E080539F4F9093E2008093E100FE
:1009D000802F09DD8091C3008F7190E080529F4F7E
:1009E0009093E2008093E100802FFDDCB801660F58
:1009F000771F8BE108DC8091C000811114C0009347
:100A0000C00087E08093C500802F5CDC802F68DC0D
:100A10004091DF00440F550B6091E000660F770BAB
:100A20008CE103DC1CC090E008171907E0F080910E
:100A3000E000882341F0802F45DC6091E000660FE4
:100A4000770B8DE1E0DB86E08093C5008091DF00CD
:100A500090919E00890F90E08017910710F0D12CA3
:100A60001DC0949A19C08091DF00882341F0802F27
:100A700037DC6091DF00660F770B8EE1C4DB84E02A
:100A80008093C50080919F009091E000891B90E0C9
:100A90000817190720F7C49ADD24D394EBDC84E10E
:100AA00069DB1092DE0082EDDCDA81E2DADA21ED38
:100AB000E22E20E0F22ED7018D917D01D2DABEED3B
:100AC000EB16B0E0FB06B9F767DB64E670E080E0A8
:100AD00090E0F4DAE090C60087E08E0D4BDB1092D8
:100AE000DE0082EDBEDA82E2BCDAC12CF12C8C2D64
:100AF000992787FD90958E159F053CF4FC01E953DD
:100B0000FF4F8081AEDAC394F2CF46DB64E670E03B
:100B100080E090E0D3DA802F5DDBDD2051F048ECFF
:100B200064EF71E08CEA63D060ED77E080E090E004
:100B30000CC06091A80070E080E090E020E43FE10C
:100B400040E050E079D1B901CA010F900F900F90A9
:100B50000F90DF91CF911F910F91FF90EF90DF9059
:100B6000CF90BF90AF909F908F900895CF93DF93D9
:100B700000D01F92CDB7DEB7C79A6AE070E080E080
:100B800090E09CDA83E88B8341E060E070E0CE0186
:100B90000396B4DB80E88A8341E060E070E0CE0138
:100BA0000296ACDB8FE8898341E060E070E0CE0123
:100BB0000196A4DB60E180E090E0EBDB60E081E0A7
:100BC00090E0E7DB60E088E190E0E3DB4DE060E0AF
:100BD00070E088E790E092DB6AE070E080E090E00F
:100BE0006DDA0F900F900F90DF91CF9108958F9253
:100BF0009F92AF92BF92CF92DF92EF92FF920F93AC
:100C00001F93CF93DF93B59B19C000E010E0C82F6E
:100C1000D0E06B01E12CF12C842E912CA12CB12C75
:100C20000C171D075CF49698C701B60147DA969A2F
:100C3000C501B40143DA0F5F1F4FF2CFDF91CF91AF
:100C40001F910F91FF90EF90DF90CF90BF90AF90EA
:100C50009F908F900895CBE9D0E0E12CF12CC70153
:100C60006DD189938FEFE81AF80A8EE0E816F10447
:100C7000B1F7C3E0CABB8DED87BB8EE581BB1BBA64
:100C800088E288BB88E482BB12B8C9B965DA88E01B
:100C90008AB98EE083B982E888B9C1B962E370E0AD
:100CA00080E090E00BDA66B570E080E2ACDA40916B
:100CB0009D00552747FD509560919C0070E081E2B2
:100CC000B4DA40919F0050E0440F551F60919E00A0
:100CD00070E0660F771F82E2A8DA4091A10050E031
:100CE000440F551F6091A00070E0660F771F83E2EC
:100CF0009CDA4091A30050E063E0440F551F6A95D1
:100D0000E1F76091A20070E0E3E0660F771FEA95DB
:100D1000E1F784E28ADA4091A50050E0F3E0440F65
:100D2000551FFA95E1F76091A40070E0A3E0660F0B
:100D3000771FAA95E1F785E278DA6091A60070E066
:100D4000B3E0660F771FBA95E1F786E25CDA40916F
:100D5000A80050E0C3E0440F551FCA95E1F7609129
:100D6000A70070E0D3E0660F771FDA95E1F787E21E
:100D70005CDA80DB80E02EDA1092AA001092A900E3
:100D800085DC6B017C011C141D041E041F0444F44B
:100D9000C701B60193D9C61AD70AE80AF90AF3CFF0
:100DA0008091A9009091AA0001969093AA00809347
:100DB000A900E6CF991B79E004C0991F961708F0A7
:100DC000961B881F7A95C9F780950895AA1BBB1BAF
:100DD00051E107C0AA1FBB1FA617B70710F0A61B3B
:100DE000B70B881F991F5A95A9F780959095BC015C
:100DF000CD010895A1E21A2EAA1BBB1BFD010DC057
:100E0000AA1FBB1FEE1FFF1FA217B307E407F507BA
:100E100020F0A21BB30BE40BF50B661F771F881F96
:100E2000991F1A9469F760957095809590959B012C
:100E3000AC01BD01CF01089568940013E894A0E0CF
:100E4000B0E0E4E2F7E01DC0EFEFE7F959016A0115
:100E50005E23550FEE08FE2C87019B01AC019E23FB
:100E6000990F660B762FCB013BD0CDB7DEB7EAE00A
:100E700024C02F923F924F925F926F927F928F92F7
:100E80009F92AF92BF92CF92DF92EF92FF920F9319
:100E90001F93CF93DF93CDB7DEB7CA1BDB0B0FB623
:100EA000F894DEBF0FBECDBF09942A8839884888E0
:100EB0005F846E847D848C849B84AA84B984C88476
:100EC000DF80EE80FD800C811B81AA81B981CE0F6D
:100ED000D11D0FB6F894DEBF0FBECDBFED01089552
:100EE000DF93CF939F92A0E49A2E0024D001E001DB
:100EF000F00116950795F794E794D794C794B794A3
:100F0000A79448F41068A20FB31FC41FD51FE61F93
:100F1000F71F081E191E220F331F441F551F661F7F
:100F2000771F881F991F9A9421F79D01AE01BF0179
:100F3000C00111249F90CF91DF910895E199FECFD8
:100F40001FBA8EBBE09A99278DB30895262FE19999
:100F5000FECF1CBA1FBA8EBB2DBB0FB6F894E29A17
:0C0F6000E19A0FBE01960895F894FFCFAF
:100F6C008F913D00300220005500010005700838BB
:100F7C005500050102DB00FF2030020000C1BB0060
:100F8C00301F0140037F0000000000000000000043
:00000001FF
