:1000000014C02EC02DC02CC017C12AC029C028C0C2
:1000100027C026C01BC124C023C022C021C020C0CD
:100020001FC01EC01DC01CC01BC011241FBECFE5B9
:10003000D1E0DEBFCDBF10E0A0E6B0E0ECE4F9E037
:1000400002C005900D92A038B107D9F720E0A0E8D2
:10005000B0E001C01D92A23BB207E1F75FD374C4C8
:10006000CFCFCF92DF92EF92FF926B017C011FBC4A
:1000700080E1C816D104E104F10448F489E08EBDA2
:10008000C701B60120E039E04DE350E015C081E83A
:10009000C8168EE3D806E104F10430F080E8C82EDB
:1000A0008EE3D82EE12CF12C8DE08EBDC701B60178
:1000B00022E43FE040E050E0BFD3B901CA0128EE9E
:1000C00033E040E050E094D33BBD2ABD1DBC1CBCD6
:1000D00080E488BF89BF85B78F7A85BF85B7806286
:1000E00085BF78948895F89485B78F7D85BF19BEB4
:1000F000C701B601FF90EF90DF90CF900895E82FF1
:10010000F0E0EF56FF4F63816F7070E0762F662747
:100110008281682B80E090E020919D0030E040E0FB
:1001200050E08AD3B901CA0128EE33E040E050E044
:100130005FD380919E00992787FD9095820F931F32
:10014000969587950895FF920F931F93CF93DF9312
:100150009398162FFB012E2F211B2417B8F5DC01D5
:100160000D91CD0128E030E0A0E850E0BA2FB02397
:1001700011F0C29A01C0C298929AB5E8BA95F1F707
:100180000000859B03C0CFEFD0E002C0C0E0D0E00C
:10019000B0E0CA23DB235C2B9298C7ECD0E0219718
:1001A000F1F700C00000B595A79521503109211540
:1001B0003105E1F66115710509F05083A3EFB1E057
:1001C0001197F1F700C000003196C5CFC298939AFD
:1001D00061E070E080E090E0DF91CF911F910F919E
:1001E000FF903FCFCF93DF9300D0CDB7DEB78983A9
:1001F0006A8342E060E070E0CE010196A4DF0F90D8
:100200000F90DF91CF910895CF93DF9300D01F928D
:10021000CDB7DEB78CE689838DE48A831B8243E009
:10022000BE016F5F7F4FCB018EDF8A810F900F90F1
:100230000F90DF91CF9108951F920F920FB60F92FA
:1002400011240F900FBE0F901F9018951F920F92C0
:100250000FB60F9211248F939F938CB59DB59093F9
:10026000AE008093AD009F918F910F900FBE0F90C5
:100270001F901895CF93DF93A1E8B0E090E021E0C4
:10028000290F822FE82FF0E0EF57FF4FC92FD0E062
:10029000CF57DF4F4081388143170CF4982F8F5F81
:1002A000803180F38C91E92FF0E0EF57FF4F908180
:1002B0009D938083922F2F3011F7DF91CF91089576
:1002C0001F93CF93DF9300D0CDB7DEB7182F9CE5F7
:1002D00099839A8342E0BE016F5F7F4FCB0133DF8A
:1002E0008A81882341F08FE8898341E060E070E0F3
:1002F000CE01019628DF88DF1093670048E060E0B8
:1003000070E080E690E01FDF6EE170E080E090E05A
:10031000A8DE7ADF982F907C81E0903C09F480E0A1
:100320000F900F90DF91CF911F91089580FF08C02B
:10033000C49A68E572E080E090E093DEC49807C05C
:10034000949A68E572E080E090E08BDE949868EC27
:1003500070E080E090E085CE82E488B987EE93E09B
:100360000197F1F700C000001FBC81E08EBD8FE057
:1003700097E29093AE008093AD008AE588B9B89873
:10038000C09A1DBC1CBC789487EE93E00197F1F7EE
:1003900000C00000F89482E988B9C098B89AC09863
:1003A0000895DF92EF92FF920F931F93CF93DF9305
:1003B00000D0CDB7DEB78C01D090B100ED2CF12C80
:1003C0008D2D86958695B2DFC70195958795AEDF11
:1003D0008D2DACDFC1DF012B31F58091AD00909107
:1003E000AE0023E0969587952A95E1F79091A300BA
:1003F000891770F49091A400891760F49091A5007A
:10040000891750F49091A600891740F485E007C041
:1004100081E005C082E003C083E001C084E048ECD5
:1004200068EC70E049D14DE060E070E088E690E073
:100430008ADE6AE070E080E090E013DE10928000D7
:1004400013E00CE5E02E812F3BDFF82E811176C002
:10045000E982EA8242E0BE016F5F7F4FCB0173DE2B
:100460000A810F770B3008F046C041E0400F61E988
:1004700070E085E790E067DE0930E9F58091920051
:10048000811139C0133049F4809197008093AF00F7
:10049000809196008093B0004CC0812F63E088D19A
:1004A000009180009130A9F09230C9F4DD24D394FA
:1004B000D00ED092800086E022DEA02FB0E0AF57B1
:1004C000BF4F8C930E5F0093800080E018DEED2D0F
:1004D0000DC081E0800F8093800082E005C081E044
:1004E000800F8093800084E00ADEE02FF0E0EF5779
:1004F000FF4F80831EC044E668EC70E083E0DCD0F0
:10050000812F63E055D1913051F4E091800081E07A
:100510008E0F80938000F0E0EF57FF4F1082E09144
:10052000800081E08E0F80938000F0E0EF57FF4F56
:1005300010826ADE1F5F103109F085CF60E180E034
:1005400090E050DEFF2041F083E08093B10044E66C
:1005500064E670E0B1D06AC08DDEE4E8F0E080E0EF
:1005600090E02191820F911D27FD9A9520E0EE38B1
:10057000F207B9F76AE070E027D18091AB00909163
:10058000AC000097D1F47093AC006093AB0087E0AF
:100590008093B1008091A100860F9091A200691B09
:1005A0009091A000691710F46093A00090919F00B3
:1005B0009817E0F580939F0039C068177907B0F06D
:1005C0008091A10090919F009E3728F0860F891797
:1005D00010F480939F0086E08093B10080919F008B
:1005E00090E08617970710F5949A16C08091A200A4
:1005F0009091A000913230F4262F281B921710F40E
:100600002093A00084E08093B1008091A00090E04E
:100610006817790758F4C49A48EC64EF71E08CEAE3
:100620004BD060ED77E080E090E00CC06091A900D5
:1006300070E080E090E020E43FE140E050E0FAD05C
:10064000B901CA010F900F90DF91CF911F910F91C7
:10065000FF90EF90DF900895CF93DF9300D01F922B
:10066000CDB7DEB783E88B8341E060E070E0CE0178
:10067000039669DD80E88A8341E060E070E0CE01A6
:10068000029661DD8FE8898341E060E070E0CE0191
:10069000019659DD60E180E090E0A4DD60E081E05A
:1006A00090E0A0DD60E088E190E09CDD0F900F908D
:1006B0000F90DF91CF9108958F929F92AF92BF924A
:1006C000CF92DF92EF92FF920F931F93CF93DF931E
:1006D00000E010E0C82FD0E06B01E12CF12C842E5B
:1006E000912CA12CB12C0C171D075CF49698C70116
:1006F000B601B7DC969AC501B401B3DC0F5F1F4F9A
:10070000F2CFDF91CF911F910F91FF90EF90DF908B
:10071000CF90BF90AF909F908F900895CCE9D0E09C
:10072000E12CF12CC70108D189938FEFE81AF80A60
:100730008EE0E816F104B1F783E08ABB9DED97BB2C
:100740003EE531BB1BBA98EA98BB90E492BB20E827
:1007500026BD16BC1FBC1EBC46B34093AA0018BAE7
:100760008ABB4DEF47BB31BB1BBA28BB92BB939AE8
:100770009298C29892E898B981B962E370E080E0FB
:1007800090E06FDC69DFC0E0D0E0CE010ADE6B01F3
:100790007C011C141D041E041F0444F4C701B6018F
:1007A00060DCC61AD70AE80AF90AF3CF2196EDCF22
:1007B000991B79E004C0991F961708F0961B881FB3
:1007C0007A95C9F780950895AA1BBB1B51E107C014
:1007D000AA1FBB1FA617B70710F0A61BB70B881FD1
:1007E000991F5A95A9F780959095BC01CD01089560
:1007F000A1E21A2EAA1BBB1BFD010DC0AA1FBB1F25
:10080000EE1FFF1FA217B307E407F50720F0A21B96
:10081000B30BE40BF50B661F771F881F991F1A9403
:1008200069F760957095809590959B01AC01BD012D
:10083000CF01089568940013E894A0E0B0E0E2E2EC
:10084000F4E01DC0EFEFE7F959016A015E23550F8F
:10085000EE08FE2C87019B01AC019E23990F660BCD
:10086000762FCB013BD0CDB7DEB7EAE024C02F9284
:100870003F924F925F926F927F928F929F92AF9230
:10088000BF92CF92DF92EF92FF920F931F93CF937D
:10089000DF93CDB7DEB7CA1BDB0B0FB6F894DEBF14
:1008A0000FBECDBF09942A88398848885F846E843A
:1008B0007D848C849B84AA84B984C884DF80EE8084
:1008C000FD800C811B81AA81B981CE0FD11D0FB68D
:1008D000F894DEBF0FBECDBFED010895DF93CF9337
:1008E0009F92A0E49A2E0024D001E001F001169519
:1008F0000795F794E794D794C794B794A79448F4CE
:100900001068A20FB31FC41FD51FE61FF71F081ED4
:10091000191E220F331F441F551F661F771F881F84
:10092000991F9A9421F79D01AE01BF01C0011124C6
:100930009F90CF91DF910895E199FECF1FBA8EBBB2
:0C094000E09A99278DB30895F894FFCF3A
:10094C008F913D00300220002030020000C1BB001E
:10095C00301F0140037F0000000000000000000079
:00000001FF
