:1000000014C02EC02DC02CC05CC12AC029C028C07D
:1000100027C026C060C124C023C022C021C020C088
:100020001FC01EC01DC01CC01BC011241FBECFE5B9
:10003000D1E0DEBFCDBF10E0A0E6B0E0E4EFF9E034
:1000400002C005900D92A038B107D9F720E0A0E8D2
:10005000B0E001C01D92A53BB207E1F7B0D3C8C420
:10006000CFCFCF92DF92EF92FF926B017C011FBC4A
:1000700080E1C816D104E104F10448F489E08EBDA2
:10008000C701B60120E030E448E350E015C081E844
:10009000C8168EE3D806E104F10430F080E8C82EDB
:1000A0008EE3D82EE12CF12C8DE08EBDC701B60178
:1000B00020E13EE040E050E005D4B901CA0128EE5D
:1000C00033E040E050E0DAD33BBD2ABD1DBC1CBC90
:1000D00080E488BF89BF85B78F7A85BF85B7806286
:1000E00085BF78948895F89485B78F7D85BF19BEB4
:1000F000C701B601FF90EF90DF90CF900895E82FF1
:10010000F0E0E058FF4F63816F7070E0762F662754
:100110008281682B80E090E020918C0030E040E00C
:1001200050E0D0D3B901CA0128EE33E040E050E0FE
:10013000A5D380918D00992787FD9095820F931FFD
:10014000E0919B0021E02E0F20939B00F0E0E4560D
:10015000FF4F969587958083089590919100209107
:100160008F00920F891718F01092B2000895981B13
:100170009093B200089590918E0020919000921B70
:10018000981718F01092B1000895891B8093B10060
:100190000895FF920F931F93CF93DF939398162F99
:1001A000FB012E2F211B241798F5DC010D91CD01A9
:1001B00028E030E0A0E850E0BA2FB02311F0C29A56
:1001C00001C0C298929ABBE7BA95F1F7859B03C02C
:1001D000CFEFD0E002C0C0E0D0E0B0E0CA23DB2324
:1001E0005C2B9298C6EFCA95F1F7B595A79521506B
:1001F00031092115310501F76115710509F05083A9
:10020000ACECB1E01197F1F700C000003196C9CF16
:10021000C298939A61E070E080E090E0DF91CF9126
:100220001F910F91FF901DCFCF93DF9300D0CDB7DB
:10023000DEB789836A8342E060E070E0CE01019618
:10024000A8DF0F900F90DF91CF910895CF93DF93A8
:1002500000D01F92CDB7DEB78CE689838DE48A8308
:100260001B8243E0BE016F5F7F4FCB0192DF8A812B
:100270000F900F900F90DF91CF9108950F931F93E0
:10028000CF93DF931F92CDB7DEB7682F0091B300F5
:100290001091B400C801698395D36981861711F064
:1002A000C80198D38091B3009091B40001969093C7
:1002B000B4008093B3000F90DF91CF911F910F9105
:1002C00008951F920F920FB60F9211240F900FBE38
:1002D0000F901F9018951F920F920FB60F92112436
:1002E0008F939F938CB59DB59093AD008093AC0098
:1002F0009F918F910F900FBE0F901F901895CF93E5
:10030000DF93ACE9B0E080E021E0280F922FE92FE5
:10031000F0E0E456FF4FC82FD0E0C456DF4F4081D5
:100320003881431708F4892F9F5F9F3080F39C9199
:10033000E82FF0E0E456FF4F80818D9390832E30BC
:1003400011F0822FE1CFDF91CF91089580FF08C097
:10035000C49A68E572E080E090E083DEC49807C04C
:10036000949A68E572E080E090E07BDE949868EC17
:1003700070E080E090E075CE82E488B989E993E08E
:100380000197F1F700C01FBC81E08EBD8FE097E2BE
:100390009093AD008093AC008AE588B9B898C09A74
:1003A0001DBC1CBC789489E993E00197F1F700C06B
:1003B000F89482E988B9C098B89AC0980895CF9205
:1003C000DF92EF92FF920F931F93CF93DF9300D0B2
:1003D0001F92CDB7DEB7F090B0000F2D10E08F2D3B
:1003E00086958695B3DFC80195958795AFDF8F2DEC
:1003F000ADDFC2DF8091990090919A00892B31F591
:100400008091AC009091AD0023E0969587952A9558
:10041000E1F790919200891770F4909193008917F9
:1004200060F490919400891750F490919500891789
:1004300040F485E007C081E005C082E003C083E0AE
:1004400001C084E048EC68EC70E044D177D11092B0
:100450009B0080E290E09093B4008093B30013E09F
:10046000F12E0CE5E02E8FE8D82E93E0C92EE9821C
:10047000EA8242E0BE016F5F7F4FCB018ADE8A8154
:10048000882339F0DB8241E060E070E0CE01039622
:1004900080DEDCDEF092670048E060E070E080E63D
:1004A00090E077DE6EE170E080E090E0DADDCEDEB5
:1004B000807C803C09F0DEC0E982EA8242E0BE0135
:1004C0006F5F7F4FCB0165DE1A811F771B3098F578
:1004D00041E0410F60E870E085E790E05ADE1930B6
:1004E00051F580918100811126C002E810E0F801E9
:1004F00081918F01C3DEF0E00A381F07C1F723E0C6
:10050000F21209C0809185008093AE008091840032
:100510008093AF002FC08F2D6C2D90D1913031F092
:10052000923031F486E0EBDD80E003C082E001C070
:1005300084E0E5DD1FC044E668EC70E083E0CAD0EB
:100540008F2D63E07BD1913051F4E0919B0081E0ED
:100550008E0F80939B00F0E0E456FF4F1082E091F5
:100560009B0081E08E0F80939B00F0E0E456FF4FEC
:10057000108280C06BDEF3948FE0F81278CF60E1D8
:1005800080E090E051DEC798BADEEFE9F0E080E06D
:1005900090E02191820F911D20E0E83AF207C9F71F
:1005A00069E070E057D18B018091990067DE802F60
:1005B00065DE8091AB0062DE80918F005FDE80910E
:1005C0008E005CDE8091AF0059DE8091AE0056DE79
:1005D0008091AF008F7090E080539F4F9093B40054
:1005E0008093B300802F4ADE8091AE008F7190E03F
:1005F00080529F4F9093B4008093B300802F3EDED3
:100600008091AB0081110AC00093AB0087E080931A
:10061000B000802FA2DD802FAEDD44C090E008172F
:100620001907A0F08091B200882311F0802F95DD8A
:1006300086E08093B0008091B10090918E00890F88
:1006400090E08017910770F5949A22C08091B100D4
:10065000882311F0802F8FDD84E08093B00080919B
:100660008F009091B200891B90E008171907D0F411
:10067000C49A0EC060E180E090E0D6DD83E0809314
:10068000B00044E664E670E025D0609197000CC0AD
:1006900048EC64EF71E08CEA1DD060ED77E080E01B
:1006A00090E00CC06091980070E080E090E020E461
:1006B0003FE140E050E004D1B901CA010F900F9032
:1006C0000F90DF91CF911F910F91FF90EF90DF90EE
:1006D000CF9008958F929F92AF92BF92CF92DF9268
:1006E000EF92FF920F931F93CF93DF93B59B19C0A7
:1006F00000E010E0C82FD0E06B01E12CF12C842E3B
:10070000912CA12CB12C0C171D075CF49698C701F5
:10071000B601A7DC969AC501B401A3DC0F5F1F4F99
:10072000F2CFDF91CF911F910F91FF90EF90DF906B
:10073000CF90BF90AF909F908F900895CF93DF930D
:1007400000D01F92CDB7DEB7C79A6AE070E080E0B4
:1007500090E087DC83E88B8341E060E070E0CE01CD
:10076000039617DD80E88A8341E060E070E0CE0107
:1007700002960FDD8FE8898341E060E070E0CE01F2
:10078000019607DD60E180E090E04EDD60E081E011
:1007900090E04ADD60E088E190E046DD4DE060E019
:1007A00070E088E690E0F5DC6AE070E080E090E0E0
:1007B00058DC0F900F900F90DF91CF910895CBE808
:1007C000D0E0E12CF12CC701FDD089938FEFE81A1E
:1007D000F80A8EE0E816F104B1F783E08ABB9DEDDC
:1007E00097BB9EE591BB1BBA98E298BB98E492BB7D
:1007F00092E898B981B962E370E080E090E031DC82
:1008000010929A0010929900DADD6B017C011C14A1
:100810001D041E041F0444F4C701B60122DCC61ADD
:10082000D70AE80AF90AF3CF8091990090919A00CB
:10083000019690939A0080939900E6CF991B79E0F6
:1008400004C0991F961708F0961B881F7A95C9F760
:1008500080950895AA1BBB1B51E107C0AA1FBB1FAF
:10086000A617B70710F0A61BB70B881F991F5A953C
:10087000A9F780959095BC01CD010895A1E21A2EAB
:10088000AA1BBB1BFD010DC0AA1FBB1FEE1FFF1F34
:10089000A217B307E407F50720F0A21BB30BE40B84
:1008A000F50B661F771F881F991F1A9469F76095CB
:1008B0007095809590959B01AC01BD01CF01089585
:1008C00068940013E894A0E0B0E0E8E6F4E01DC00E
:1008D000EFEFE7F959016A015E23550FEE08FE2C90
:1008E00087019B01AC019E23990F660B762FCB01EC
:1008F0003BD0CDB7DEB7EAE024C02F923F924F92B3
:100900005F926F927F928F929F92AF92BF92CF929F
:10091000DF92EF92FF920F931F93CF93DF93CDB7A8
:10092000DEB7CA1BDB0B0FB6F894DEBF0FBECDBF20
:1009300009942A88398848885F846E847D848C84F1
:100940009B84AA84B984C884DF80EE80FD800C81FA
:100950001B81AA81B981CE0FD11D0FB6F894DEBFDD
:100960000FBECDBFED010895DF93CF939F92A0E41A
:100970009A2E0024D001E001F00116950795F79416
:10098000E794D794C794B794A79448F41068A20F3B
:10099000B31FC41FD51FE61FF71F081E191E220F05
:1009A000331F441F551F661F771F881F991F9A9476
:1009B00021F79D01AE01BF01C00111249F90CF918D
:1009C000DF910895E199FECF1FBA8EBBE09A992777
:1009D0008DB30895262FE199FECF1CBA1FBA8EBBA6
:1009E0002DBB0FB6F894E29AE19A0FBE01960895D6
:0409F000F894FFCFA9
:1009F4008F913D00300220002030020000C1BB0076
:100A0400301F0140037F00000000000000000000D0
:00000001FF
