:1000000015C12FC12EC12DC1FCC22BC12AC129C1CE
:1000100028C127C100C325C124C123C122C121C1D8
:1000200020C11FC11EC11DC11CC1726561645F6911
:100030006E74657276616C3D90207365630A0A0088
:10004000726561645F6572726F725F7265747279F6
:100050003D90207365630A00626174745F353D9062
:100060000A00626174745F343D900A0062617474C6
:100070005F333D900A00626174745F323D900A0004
:10008000626174745F313D900A006D617267696EE0
:100090005F4C4F573D900A006D617267696E5F4813
:1000A0004947483D900A00616C61726D5F4C4F5743
:1000B0003D900A00616C61726D5F484947483D9010
:1000C0000A006F66667365743D900A00736C6F700A
:1000D000653D900A000A0A0A6F73633D78800A0042
:1000E000202D3E2090206D67250A005D203D209048
:1000F000007261775B9000202020206661696C654A
:100100006420626C6F636B3A2023900A00204243A4
:1001100041420A0020434142430A002041424341F8
:100120000A002C20686973745F6964783A20239010
:100130000A0020207472656E645F6964783A202337
:100140009000905D2000626C6B209020205B00622C
:100150006164204649464F206C656E6774680049AB
:10016000534F206572726F7220004649464F5F6C94
:10017000656E203E203130002028802900206174E7
:10018000206C696E6520002A2A2A2000626C6F6349
:100190006B206E756D626572006D697373696E6751
:1001A000205278206F7220547820496E74657272E4
:1001B000757074004952515F535441545553202176
:1001C0003D2030004649464F206C656E203E203071
:1001D000006E65772D6C6F773A20900A006E657718
:1001E0002D686967683A20900A00696E692D686910
:1001F00067683A20900A00696E692D6C6F773A2023
:10020000900A00676C75636F73653A20900A00204E
:10021000626174743D900A0020737461743D8000C3
:1002200020696E69423D80006A3D900011241FBE26
:10023000CFE5D1E0DEBFCDBF10E0A0E6B0E0E8E75B
:10024000FFE002C005900D92A038B107D9F720E079
:10025000A0E8B0E001C01D92A33BB207E1F7D9D4FA
:1002600089C6CECE90E09F6F880F991F2CE042E1A7
:1002700080FF03C0C69A919A03C0C698919891983E
:1002800095958795342F3A95F1F7215089F7089580
:10029000CF92DF92EF92FF926B017C011FBC80E155
:1002A000C816D104E104F10448F489E08EBDC70109
:1002B000B60120E039E04DE350E015C081E8C816F2
:1002C0008EE3D806E104F10430F050E8C52E5EE379
:1002D000D52EE12CF12C8DE08EBDC701B60122E4B4
:1002E0003FE040E050E0BED5B901CA0128EE33E05E
:1002F00040E050E093D53BBD2ABD1DBC1CBC80E452
:1003000088BF89BF85B78F7A85BF85B7806285BF73
:1003100078948895F89485B78F7D85BF19BEC701FD
:10032000B601FF90EF90DF90CF900895DF92EF92AB
:10033000FF920F931F93CF93DF93CDB7DEB72A972A
:100340000FB6F894DEBF0FBECDBF8C0197FF05C07E
:100350008DE288DF119501951109FE01319640E08B
:10036000DD24D3947F012AE030E04F5FC801B9015A
:1003700042D581938111D42EC801B9013CD58B019E
:100380004A3099F7DA94F701ED0DF11D8081805D17
:1003900069DFD110F7CF2A960FB6F894DEBF0FBEF3
:1003A000CDBFDF91CF911F910F91FF90EF90DF9024
:1003B0000895FF920F931F93CF93DF939398162F77
:1003C000FB012E2F211B2417B8F5DC010D91CD0167
:1003D00028E030E0A0E850E0BA2FB02311F0C29A34
:1003E00001C0C298929AB5E8BA95F1F70000859BD2
:1003F00003C0CFEFD0E002C0C0E0D0E0B0E0CA233D
:10040000DB235C2B9298C7ECD0E02197F1F700C07A
:100410000000B595A7952150310921153105E1F668
:100420006115710509F05083A3EFB1E01197F1F761
:1004300000C000003196C5CFC298939A61E070E089
:1004400080E090E0DF91CF911F910F91FF9020CF3E
:10045000CF93DF9300D0CDB7DEB789836A8342E0C4
:1004600060E070E0CE010196A4DF0F900F90DF9165
:10047000CF910895CF93DF9300D01F92CDB7DEB711
:100480008CE689838DE48A831B8243E0BE016F5F23
:100490007F4FCB018EDF8A810F900F900F90DF91FD
:1004A000CF910895CF93C82F282F30E084E0359561
:1004B00027958A95E1F72A3010F480E301C087E39D
:1004C000820FD0DECF70CA3010F480E301C087E322
:1004D0008C0FCF91C7CE0F931F93CF93DF93162F1F
:1004E000072FEC01FE018491882399F0813829F0CF
:1004F000803941F0803851F402C0802FD3DF812F42
:10050000D1DF05C0812F902F11DF01C0ABDE219616
:10051000E9CFDF91CF911F910F910895EF92FF9254
:100520000F931F93CF93DF937C018B01EA016FEF51
:100530007FEF87E891E0CFDF6FEF7FEFC701CBDF81
:100540006FEF7FEF8DE791E0C6DFC801EFDECF3FB1
:100550008FEFD80721F0BE0188E791E0BCDF8AE089
:10056000DF91CF911F910F91FF90EF907BCEDF92A3
:10057000EF92FF920F931F93CF93DF93E82FF0E05A
:10058000E058FF4FC381CF70D0E0DC2FCC278281B1
:10059000C82BBE0180E090E020918C0030E040E06C
:1005A00050E060D4B901CA0128EE33E040E050E0E9
:1005B00035D400918D00112707FD1095020F131FF0
:1005C000D0909900ED2CF12CB70181EF90E083DF02
:1005D000BE018BEE90E07FDFB80180EE90E07BDF24
:1005E000D394D0929900F701E656FF4F16950795E0
:1005F0000083DF91CF911F910F91FF90EF90DF90DB
:1006000008951F920F920FB60F9211240F900FBEF4
:100610000F901F9018951F920F920FB60F921124F2
:100620008F939F938CB59DB59093AD008093AC0054
:100630009F918F910F900FBE0F901F901895CF93A1
:10064000DF93AAE9B0E080E021E0280F922FE92FA4
:10065000F0E0E656FF4FC82FD0E0C656DF4F40818E
:100660003881431708F4892F9F5F9F3080F39C9156
:10067000E82FF0E0E656FF4F80818D9390832E3077
:1006800011F0822FE1CFDF91CF91089580FF08C054
:10069000C49A68E572E080E090E0FADDC49807C093
:1006A000949A68E572E080E090E0F2DD949868EC5E
:1006B00070E080E090E0ECCD82E488B987EE93E0D2
:1006C0000197F1F700C000001FBC81E08EBD8FE0F4
:1006D00097E29093AD008093AC008AE588B9B89812
:1006E000C09A1DBC1CBC789487EE93E00197F1F78B
:1006F00000C00000F89482E988B9C098B89AC09800
:100700000895AF92BF92CF92DF92EF92FF920F9334
:100710001F93CF93DF9300D000D0CDB7DEB78C010D
:10072000D090B000ED2CF12C8D2D86958695AEDF06
:10073000C70195958795AADF8D2DA8DFBDDF01152F
:10074000110531F52091AC003091AD0043E03695B4
:1007500027954A95E1F780919200281770F48091CF
:100760009300281760F480919400281750F480912A
:100770009500281740F485E007C081E005C082E0BD
:1007800003C083E001C084E048EC68EC70E00BD269
:10079000B80188E292E09FDE6091A90070E080E2FB
:1007A00092E099DE6091B00070E088E192E093DE23
:1007B0006091AC007091AD008FE092E08CDE4DE076
:1007C00060E070E088E690E0F4DD6AE070E080E0F0
:1007D00090E05EDD1092990080E290E09093B2008C
:1007E0008093B10003E010E08CE5C82E9FE8B92E9D
:1007F00023E0A22ED02EC982CA8242E0BE016F5FE2
:100800007F4FCB01D6DD4A81442369F050E064E993
:1008100072E084EC91E082DEBB8241E060E070E057
:10082000CE010396C6DD26DE882339F0482F50E03E
:100830006BE972E084EB91E071DED092670048E0F2
:1008400060E070E080E690E0B4DD6EE170E080E0B2
:1008500090E01EDD0FDE982F907C903C79F0482FC1
:1008600050E067EA72E089E991E058DE4D2D50E0F2
:1008700068EA72E08CE891E051DE3EC1C982CA822A
:1008800042E0BE016F5F7F4FCB0193DD2A812F775E
:100890002B3038F0422F50E06AE172E08AE691E0B6
:1008A0001DC041E0420F60E870E085E790E02C83D6
:1008B00080DD409181002C81223031F450E065E2EE
:1008C00072E08FE591E00AC04111F8CF2930E9F0DC
:1008D000422F50E06BE272E08FE491E01FDE44E6CD
:1008E00068EC70E083E05FD18D2D63E064D29130DD
:1008F00009F059C0E091990081E08E0F8093990032
:10090000F0E0E656FF4F10824EC0B80186E491E059
:10091000E2DDB801A3E0660F771FAA95E1F782E454
:1009200091E0D9DDBAE8EB2EB0E0FB2EF701829121
:100930007F01B8DDF2E8EF16F0E0FF06B9F723E03B
:10094000D21212C0F0908500F092AE006091840047
:100950006093AF0070E082E391E0BDDD6F2D70E049
:1009600082E291E0B8DD2FC08D2D6A2D24D2913026
:1009700059F0923081F46FEF7FEF84E191E0ABDDCD
:1009800086E0F5DD80E00DC06FEF7FEF8BE191E059
:10099000A2DD82E006C06FEF7FEF8DE091E09BDD8E
:1009A00084E0E5DD10C0E091990081E08E0F809336
:1009B0009900F0E0E656FF4F10826D2D70E087EF52
:1009C00090E089DD99C056DD0F5F1F4F0F30110594
:1009D00009F010CF10E060E180E090E039DD1123F4
:1009E00051F083E08093B00044E664E670E0DBD031
:1009F000609197008FC023DEEDE9F0E080E090E0A9
:100A00002191820F911D20E0E63AF207C9F769E0D3
:100A100070E0DDD18B01660F771F83E092E05BDD34
:100A20008091AA009091AB00009751F51093AB0014
:100A30000093AA0087E08093B00080919000800F1F
:100A400090919100091B90918F00091710F4009369
:100A50008F0090918E00981710F480938E00609113
:100A60008F0070E0660F771F87EF91E034DD6091B3
:100A70008E0070E0660F771F8AEE91E02CDD48C093
:100A800008171907E0F06091900080918E008E3772
:100A900058F0600F681740F460938E0070E0660FA6
:100AA000771F8DED91E017DD86E08093B000809197
:100AB0008E0090E08017910758F5949A1FC090918E
:100AC000910080918F00813260F4602F691B86173E
:100AD00040F460938F0070E0660F771F81ED91E026
:100AE000FADC84E08093B00080918F0090E00817DA
:100AF000190770F4C49A02C011E06DCF48EC64EF9E
:100B000071E08CEA50D060ED77E080E090E00CC0BE
:100B10006091980070E080E090E020E43FE140E0E8
:100B200050E09ED1B901CA010F900F900F900F9025
:100B3000DF91CF911F910F91FF90EF90DF90CF90B9
:100B4000BF90AF900895CF93DF9300D01F92CDB7A1
:100B5000DEB783E88B8341E060E070E0CE0103966E
:100B600028DC80E88A8341E060E070E0CE010296F4
:100B700020DC8FE8898341E060E070E0CE010196DF
:100B800018DC60E180E090E063DC60E081E090E010
:100B90005FDC60E088E190E05BDC0F900F900F90ED
:100BA000DF91CF9108958F929F92AF92BF92CF9293
:100BB000DF92EF92FF920F931F93CF93DF93909169
:100BC000A90095FF19C000E010E0C82FD0E06B012C
:100BD000E12CF12C842E912CA12CB12C0C171D078B
:100BE0005CF49698C701B60153DB969AC501B4012F
:100BF0004FDB0F5F1F4FF2CFDF91CF911F910F910E
:100C0000FF90EF90DF90CF90BF90AF909F908F902C
:100C10000895CBE8D0E0E12CF12CC701A3D1899352
:100C20008FEFE81AF80A8EE0E816F104B1F783E0D6
:100C30008ABB9DED97BB3EE531BB1BBA98EA98BBDA
:100C400090E492BB20E826BD16BC1FBC1EBCC69A11
:100C5000919A46B34093A90018BA8ABB4DEF47BB9F
:100C600031BB1BBA28BB92BB939A9298C29892E868
:100C700098B981B962E370E080E090E009DB63DF5E
:100C800080918B008F3F09F486E281BF61B770E0ED
:100C900085ED90E020DC60918C0070E08CEC90E0C1
:100CA0001ADC60918D00772767FD709582EC90E0EB
:100CB00012DC60918E0070E0660F771F84EB90E08D
:100CC0000ADC60918F0070E0660F771F87EA90E082
:100CD00002DC6091900070E0660F771F88E990E079
:100CE000FADB6091910070E0660F771F8AE890E070
:100CF000F2DB6091920070E0C3E0660F771FCA9547
:100D0000E1F780E890E0E7DB6091930070E0D3E0EA
:100D1000660F771FDA95E1F786E790E0DCDB6091FC
:100D2000940070E083E0660F771F8A95E1F78CE608
:100D300090E0D1DB6091950070E093E0660F771F43
:100D40009A95E1F782E690E0C6DB6091960070E04C
:100D500023E0660F771F2A95E1F788E590E0BBDB7B
:100D60006091970070E033E0660F771F3A95E1F7E6
:100D700080E490E0B0DB6091980070E043E0660FA3
:100D8000771F4A95E1F78AE290E0A5DBC0E0D0E06A
:100D9000CE01B7DC6B017C011C141D041E041F0472
:100DA00044F4C701B60174DAC61AD70AE80AF90A88
:100DB000F3CF2196EDCF991B79E004C0991F9617C8
:100DC00008F0961B881F7A95C9F780950895AA1B8D
:100DD000BB1B51E107C0AA1FBB1FA617B70710F026
:100DE000A61BB70B881F991F5A95A9F78095909558
:100DF000BC01CD01089597FB072E16F4009406D090
:100E000077FD08D0E4DF07FC05D03EF4909581958E
:100E10009F4F0895709561957F4F0895A1E21A2E16
:100E2000AA1BBB1BFD010DC0AA1FBB1FEE1FFF1F8E
:100E3000A217B307E407F50720F0A21BB30BE40BDE
:100E4000F50B661F771F881F991F1A9469F7609525
:100E50007095809590959B01AC01BD01CF010895DF
:100E600068940013E894A0E0B0E0E8E3F7E01DC068
:100E7000EFEFE7F959016A015E23550FEE08FE2CEA
:100E800087019B01AC019E23990F660B762FCB0146
:100E90003BD0CDB7DEB7EAE024C02F923F924F920D
:100EA0005F926F927F928F929F92AF92BF92CF92FA
:100EB000DF92EF92FF920F931F93CF93DF93CDB703
:100EC000DEB7CA1BDB0B0FB6F894DEBF0FBECDBF7B
:100ED00009942A88398848885F846E847D848C844C
:100EE0009B84AA84B984C884DF80EE80FD800C8155
:100EF0001B81AA81B981CE0FD11D0FB6F894DEBF38
:100F00000FBECDBFED010895DF93CF939F92A0E474
:100F10009A2E0024D001E001F00116950795F79470
:100F2000E794D794C794B794A79448F41068A20F95
:100F3000B31FC41FD51FE61FF71F081E191E220F5F
:100F4000331F441F551F661F771F881F991F9A94D0
:100F500021F79D01AE01BF01C00111249F90CF91E7
:100F6000DF910895E199FECF1FBA8EBBE09A9927D1
:080F70008DB30895F894FFCF42
:100F78008F913D00300220002030020000C1BB00EC
:100F8800301F0140037F0000000000000000000047
:00000001FF
